:100000000C9470010C9410060C943D060C946A0636
:100010000C9497060C9498010C9498010C94C406C7
:100020000C9498010C9498010C94D00D0C949E0C97
:100030000C9498010C9498010C9498010C949801DC
:100040000C9498010C9429050C9498010C94980137
:100050000C9498010C9498010C9498010C94F1065E
:100060000C9498010C9498010C9498010C949801AC
:100070000C9498010C9498010C9498010C9498019C
:100080000C9498010C9498010C9498010C9498018C
:100090000C9498010C9498010C9498010C9498017C
:1000A0000C9498010C9498010C94980100000002A3
:1000B00000080E0000030401000B00000000000017
:1000C00000000000000000000000040802011040D1
:1000D00080401020408040800802040180402010B1
:1000E00002011080102040400404040404030405AD
:1000F00002020202040302020202060606060606C5
:10010000040402020204000000002300260029006B
:100110002C002F0000000000250028002B002E00DE
:10012000310000000000240027002A002D003000CC
:1001300000C18081C112010002020000404123364B
:100140008000010102000112010002000000404194
:10015000233680000101020001180341007200648F
:1001600000750069006E006F0020004C004C0043D9
:10017000002203410072006400750069006E006F88
:100180000020004C0065006F006E0061007200648A
:10019000006F0004030904080B00020202010009B9
:1001A00004000001020200000524001001052401E2
:1001B000010104240206052406000107058103103D
:1001C000004009040100020A000000070502024085
:1001D000000007058302400000000000000000004E
:1001E000002A2B2800000000000000000000000092
:1001F0000000000000000000002C9EB4A0A1A2A4FA
:1002000034A6A7A5AE362D3738271E1F202122235E
:10021000242526B333B62EB7B89F84858687888970
:100220008A8B8C8D8E8F90919293949596979899B6
:100230009A9B9C9D2F3130A3AD3504050607080914
:100240000A0B0C0D0E0F1011121314151617181996
:100250001A1B1C1DAFB1B0B5000904020001030058
:100260000000092101010001226500070584034007
:10027000000105010902A1010901A100850105098B
:1002800019012903150025019503750181029501C6
:100290007505810305010930093109381581257F6C
:1002A000750895038106C0C005010906A1018502F4
:1002B000050719E029E71500250175019508810258
:1002C00095017508810395067508150025650507D4
:1002D000190029658100C00063036911DF12A903B9
:1002E00011241FBECFEFDAE0DEBFCDBF11E0A0E0EA
:1002F000B1E0E4E7F6E202C005900D92A239B10741
:10030000D9F712E0A2E9B1E001C01D92A33AB1070A
:10031000E1F712E0CEEDD2E004C02297FE010E9488
:100320001013C83DD107C9F70E9479090C942D1309
:100330000C94000084E092E00E94D803882321F00E
:1003400081E080930101089581E08093E3010895A5
:10035000EF92FF920F931F93CF93DF93CDB7DEB74A
:100360002E970FB6F894DEBF0FBECDBF7E0188E09A
:10037000E80EF11C69E371E0C7010E94FB0906EE7B
:1003800011E0F80161918F01CE0101960E94320ABD
:10039000BE016F5F7F4FC7010E94770ACE010196B1
:1003A0000E948A09F1E0093E1F0759F768ED71E0E4
:1003B000C7010E94AF0A81113BC061ED71E0C70126
:1003C0000E94AF0A811137C06AEC71E0C7010E9438
:1003D000AF0A811133C063EC71E0C7010E94AF0A1C
:1003E00081112FC06CEB71E0C7010E94AF0A81112F
:1003F0002BC065EB71E0C7010E94AF0A811127C0D5
:100400006EEA71E0C7010E94AF0A811123C067EA5A
:1004100071E0C7010E94AF0A81111FC062E971E05B
:10042000C7010E94AF0A81111BC00BE010E01AC087
:1004300001E010E017C002E010E014C003E010E09B
:1004400011C004E010E00EC005E010E00BC006E0B3
:1004500010E008C007E010E005C008E010E002C0AE
:100460000AE010E0CE0108960E948A09C8012E9683
:100470000FB6F894DEBF0FBECDBFDF91CF911F91B5
:100480000F91FF90EF900895EF92FF920F931F93BB
:10049000CF93DF93CDB7DEB72E970FB6F894DEBFBC
:1004A0000FBECDBF7E0188E0E80EF11C69E371E06C
:1004B000C7010E94FB0909EE11E0F80161918F016B
:1004C000CE0101960E94320ABE016F5F7F4FC701C5
:1004D0000E94770ACE0101960E948A09F1E00C3E43
:1004E0001F0759F766E371E0C7010E94C00A182F81
:1004F000C7010E948A0981E0111101C080E02E9697
:100500000FB6F894DEBF0FBECDBFDF91CF911F9124
:100510000F91FF90EF9008951092E5011092E40181
:100520000E94260584E092E00C94DC03CF92DF92D7
:10053000EF92FF928091010181110E941C05809130
:10054000E301882361F00E943B076093DF01709311
:10055000E0018093E1019093E2011092E301809128
:1005600007010E945009892B09F04DC0C090DF019E
:10057000D090E001E090E101F090E20184ECC80E3F
:1005800089E0D81EE11CF11C0E943B076C157D051B
:100590008E059F05A0F137C08091000181110E9456
:1005A0008C0262E071E086EE91E00E949E05882355
:1005B00069F180910101882371F0109201010E947C
:1005C000A8019093E5018093E4010B97F9F481E091
:1005D000809301011BC0E090E401F090E5010E94CE
:1005E000A801E816F90691F40E944402682F809150
:1005F0000501FF90EF90DF90CF900C94190981E0F6
:1006000080930001C9CF10920001C6CFFF90EF90F8
:10061000DF90CF900895CF92DF92EF92FF920F93E9
:100620001F93CF93DF938C016B01E12CF12C1CC045
:10063000C0E0D0E0BE01809105010E94F307C70130
:10064000B6010E9477072196CF3FD10599F7BE01E9
:10065000809105010E94F307C701B6010E94770748
:100660002197A8F7015011090115110509F7DF912C
:10067000CF911F910F91FF90EF90DF90CF90089551
:1006800061E0809105010E94E108809103010E94D0
:10069000390480ED97E00E94DF0461E070E081E0C2
:1006A00090E00E940B0362E0809107010E94E10844
:1006B00042E050E06AE971E081E00E94C00584E018
:1006C00092E00C94DC0384E092E00E94D5036AE39C
:1006D00071E088ED91E00E94FB096EE371E081ED2D
:1006E00091E00E94FB0962E471E08AEC91E00E94D3
:1006F000FB0966E471E083EC91E00E94FB096AE487
:1007000071E08CEB91E00E94FB096EE471E085EBF7
:1007100091E00E94FB0962E571E08EEA91E00E949F
:10072000FB0966E571E087EA91E00E94FB0966E358
:1007300071E080EA91E00E94FB096AE571E089E9D5
:1007400091E00E94FB096EE571E082E991E00C9472
:10075000FB0982E991E00E948A0989E991E00E94FF
:100760008A0980EA91E00E948A0987EA91E00E9462
:100770008A098EEA91E00E948A0985EB91E00E9445
:100780008A098CEB91E00E948A0983EC91E00E9437
:100790008A098AEC91E00E948A0981ED91E00E9429
:1007A0008A0988ED91E00C948A09FC011082089571
:1007B000FC01808110820895CF93DF93EC0164E601
:1007C00070E080E090E00E94770783B7817F8460CB
:1007D00083BF81E0888383B7816083BF83B78160F3
:1007E00083BF889583B78E7F83BF83B78E7F83BF98
:1007F000DF91CF910895682780E1689F90011124CF
:10080000622770E0362F2227492F50E0242B352B0A
:10081000CB01F4E095958795FA95E1F728273927DC
:10082000A3E0660F771FAA95E1F726273727C901AE
:1008300008951F93CF93DF93EC01162F2FEF3FEF17
:1008400005C06991C9010E94FB039C011150C8F7C2
:10085000C901DF91CF911F910895982FE2E6F1E051
:1008600080E02191921721F08F5F8031D1F780E0F5
:10087000089580930A0108951F93CF93DF93909179
:100880000902992329F080910A028F5F80930A025E
:1008900020910B0280910C02921759F0803510F4D0
:1008A0002BE001C02DE1820F80930C0290930B028C
:1008B00003C08C5E80930C0220910C02203A08F455
:1008C0007AC080910D0290910E0296958795909333
:1008D0000E0280930D0230910A02353028F09860A4
:1008E00090930E0280930D02205A20930C021092D6
:1008F0000A0280910F02882309F44DC080911002F2
:100900008F5F809310028C3008F455C0C0910D02A7
:10091000D0910E028C2F8F730E942D04182FCE01C0
:10092000C6E096958795CA95E1F70E942D0490E15F
:10093000199F90011124822B9091050291110EC0F4
:1009400080931102982F9450963040F010920F022D
:10095000809112028F5F809312022DC09091050248
:10096000E92FF0E0ED5EFD4F80839F5F90930502DD
:100970009091050280911102981750F010920F0289
:1009800080911C028F5F80931C0281E0809306029D
:100990001092100210C080910D0290910E028833C7
:1009A0009B4049F481E080930F0210921002109254
:1009B000050210920602DF91CF911F9108959C01CC
:1009C00040E050E060E874E88EE190E00E94EC12B4
:1009D0001092800089E080938100309389002093F9
:1009E0008800EFE6F0E080818260808361E08091A2
:1009F00009010E94E10860E080910A010E94E1087B
:100A000061E080910B010E94E108609108028091F1
:100A10000B010C9419096091080280910B010E944E
:100A2000190960E0809109010E94190910920702DA
:100A300081E080932002089580912002811105C0F9
:100A400081E08093200210920F02089510922002FC
:100A500008951F920F920FB60F9211242F933F9378
:100A60004F935F936F937F938F939F93AF93BF93B6
:100A7000EF93FF9380910A010E945009809309022D
:100A8000809107028823A9F180911F02982F9F5F10
:100A900090931F028823D1F12CC00E940B058091F6
:100AA00022029091230201969093230280932202C6
:100AB00020C020911E0281E090E0022E01C0880F2C
:100AC0000A94EAF7F0E0E45FFE4F608168232F5F4D
:100AD00020931E02809109010E94190980911E0233
:100AE000863038F010921E0280911D028F5F809335
:100AF0001D0280911F02883010F010921F02809119
:100B00002002882351F00E943C0407C0E0911D029E
:100B100080912102E81708F6CCCFFF91EF91BF91A9
:100B2000AF919F918F917F916F915F914F913F9185
:100B30002F910F900FBE0F901F901895FB012091E1
:100B400006022223D1F02091050223503081231781
:100B500008F42083408124E132E050E0B9010E9492
:100B60001413109206026091050283E192E00E9444
:100B7000190421E0883B904F09F020E0822F08956E
:100B8000853008F04CC0E82FF0E0EE0FFF1FEC5D61
:100B9000FD4F718360838230E1F018F4813029F4D5
:100BA0000CC0833019F1843071F1809169008C7F21
:100BB000842B80936900E89A089580916900440F1E
:100BC000551F440F551F837F842B80936900E99A3A
:100BD00008958091690034E0440F551F3A95E1F77C
:100BE0008F7C842B80936900EA9A08958091690034
:100BF00026E0440F551F2A95E1F78F73842B8093CD
:100C00006900EB9A089580916A0094E0440F551FA3
:100C10009A95E1F78F7C842B80936A00EE9A089571
:100C20001F920F920FB60F9211242F933F934F9361
:100C30005F936F937F938F939F93AF93BF93EF9344
:100C4000FF938091240290912502892B29F0E09155
:100C50002402F09125020995FF91EF91BF91AF9188
:100C60009F918F917F916F915F914F913F912F91C4
:100C70000F900FBE0F901F9018951F920F920FB6F6
:100C80000F9211242F933F934F935F936F937F9312
:100C90008F939F93AF93BF93EF93FF93809126021F
:100CA00090912702892B29F0E0912602F0912702EA
:100CB0000995FF91EF91BF91AF919F918F917F9196
:100CC0006F915F914F913F912F910F900FBE0F90B9
:100CD0001F9018951F920F920FB60F9211242F9309
:100CE0003F934F935F936F937F938F939F93AF93B4
:100CF000BF93EF93FF938091280290912902892B53
:100D000029F0E0912802F09129020995FF91EF91D5
:100D1000BF91AF919F918F917F916F915F914F9113
:100D20003F912F910F900FBE0F901F9018951F921B
:100D30000F920FB60F9211242F933F934F935F930F
:100D40006F937F938F939F93AF93BF93EF93FF9393
:100D500080912A0290912B02892B29F0E0912A029E
:100D6000F0912B020995FF91EF91BF91AF919F9167
:100D70008F917F916F915F914F913F912F910F9044
:100D80000FBE0F901F9018951F920F920FB60F92E3
:100D900011242F933F934F935F936F937F938F9380
:100DA0009F93AF93BF93EF93FF9380912C02909109
:100DB0002D02892B29F0E0912C02F0912D0209954A
:100DC000FF91EF91BF91AF919F918F917F916F9123
:100DD0005F914F913F912F910F900FBE0F901F90F9
:100DE00018951F920F920FB60F9211242F933F93D5
:100DF0008F939F93AF93BF9380912E0290912F0278
:100E0000A0913002B091310230913602232F2D5F34
:100E10002D3720F40196A11DB11D05C0232F2A579F
:100E20000296A11DB11D2093360280932E0290934D
:100E30002F02A0933002B093310280913202909140
:100E40003302A0913402B09135020196A11DB11D6B
:100E50008093320290933302A0933402B093350210
:100E6000BF91AF919F918F913F912F910F900FBEA6
:100E70000F901F9018950F931F938FB7F8940091C0
:100E80002E0210912F0220913002309131028FBF3B
:100E9000B801C9011F910F9108950F931F939FB738
:100EA000F894009132021091330220913402309173
:100EB000350286B5A89B06C08F3F21F00F5F1F4FFC
:100EC0002F4F3F4F9FBF322F212F102F0027080F8A
:100ED000111D211D311D42E0000F111F221F331F64
:100EE0004A95D1F7B801C9011F910F910895CF928A
:100EF000DF92EF92FF92CF93DF936B017C010E9410
:100F00004D07EB010EC00E944D076C1B7D0B683E28
:100F1000734038F081E0C81AD108E108F108C851DF
:100F2000DC4FC114D104E104F10469F7DF91CF91E2
:100F3000FF90EF90DF90CF900895789484B5826011
:100F400084BD84B5816084BD85B5826085BD85B56D
:100F5000816085BDEEE6F0E0808181608083E1E81C
:100F6000F0E0108280818260808380818160808354
:100F7000E0E8F0E0808181608083E1E9F0E0808159
:100F800082608083808181608083E0E9F0E08081FD
:100F900081608083E1ECF0E08081846080838081E7
:100FA00082608083808181608083E3ECF0E08081D7
:100FB00081608083E0ECF0E0808182608083E2ECFD
:100FC000F0E0808181608083EAE7F0E080818460E6
:100FD0008083808182608083808181608083808142
:100FE0008068808308951F93CF93DF93182FEB01C0
:100FF00061E00E94E108209711F460E004C0CF3F57
:10100000D10539F461E0812FDF91CF911F910C94CC
:101010001909E12FF0E0E455FF4FE491E830E9F1E0
:1010200068F4E23009F120F4E13009F076C017C02D
:10103000E330F9F0E43009F070C025C0EB3009F47A
:101040004AC030F4E93099F1EA3009F066C039C09D
:10105000EC3009F44DC0EE3009F05FC051C084B5EA
:10106000806884BDC7BD5EC084B5806284BDC8BDD4
:1010700059C080918000806880938000D09389005F
:10108000C09388004FC08091800080628093800070
:10109000D0938B00C0938A0045C0809190008068F7
:1010A00080939000D0939900C09398003BC08091AA
:1010B0009000806280939000D0939B00C0939A0030
:1010C00031C080919000886080939000D0939D0003
:1010D000C0939C0027C08091C00080688093C000AE
:1010E0008091C0008F7B8093C000C093CF001AC056
:1010F0008091C00080628093C000C093D00012C075
:101100008091C20088608093C2008091C2008B7F72
:101110008093C200C093D20005C0C038D1050CF046
:1011200071CF6BCFDF91CF911F910895883059F126
:1011300060F4823021F120F4813009F041C01CC0FC
:10114000833081F08430E1F511C08B3051F128F407
:101150008930E9F08A30A1F51EC08C3031F18E3033
:1011600079F529C0809180008F7703C0809180003D
:101170008F7D80938000089584B58F7702C084B5F9
:101180008F7D84BD0895809190008F7707C08091F6
:1011900090008F7D03C080919000877F80939000A6
:1011A00008958091C0008F7703C08091C0008F7D2B
:1011B0008093C00008958091C200877F8093C20011
:1011C0000895CF93DF9390E0FC01E653FF4F4491E5
:1011D000FC01E851FF4F8491882341F190E0880F92
:1011E000991FFC01EE5DFE4F25913491D9018C5E73
:1011F0009E4FFC0185919491C82FD92F9FB7F894E9
:101200008C91611106C0409584238C93888184233E
:1012100008C0623041F4242F209582238C9388816A
:10122000842B888302C0842B8C939FBFDF91CF9146
:1012300008950F931F93CF93DF931F92CDB7DEB71F
:10124000282F30E0F901E455FF4F8491F901E6536E
:10125000FF4F1491F901E851FF4F04910023D1F0A1
:10126000882321F069830E9496086981E02FF0E0CD
:10127000EE0FFF1FEC5EFE4F85919491DC019FB74E
:10128000F8948C91611103C01095812301C0812BCA
:101290008C939FBF0F90DF91CF911F910F91089575
:1012A000CF93DF93282F30E0F901E455FF4F84916D
:1012B000F901E653FF4FD491F901E851FF4FC49172
:1012C000CC2389F081110E949608EC2FF0E0EE0FFC
:1012D000FF1FEA5FFE4F85919491DC018C918D2375
:1012E00021E030E011F420E030E0C901DF91CF913E
:1012F00008950E949D0787E392E00E942F0E0E94AE
:101300004003C0E0D0E00E9496022097E1F30E94E3
:101310000000F9CFFC01808191810C94E80ECF93FD
:10132000DF93EC0188819981009711F00E94E80E0B
:10133000198218821D821C821B821A82DF91CF9132
:1013400008950F931F93CF93DF93EC018B016F5F91
:101350007F4F888199810E94870F009731F0998390
:1013600088831B830A8381E001C080E0DF91CF91F5
:101370001F910F910895CF93DF93EC01888199819C
:10138000892B31F08A819B818617970708F00CC062
:10139000CE010E94A109882349F08C819D81892B6F
:1013A00019F4E881F981108281E001C080E0DF91C9
:1013B000CF910895EF92FF920F931F93CF93DF93F6
:1013C000EC017B018A01BA010E94BB09811104C0B2
:1013D000CE010E948F0907C01D830C83B70188814D
:1013E00099810E942613CE01DF91CF911F910F9119
:1013F000FF90EF900895DC0111961C921E921396B7
:101400001C921E92129715961C921E921497169675
:101410001C926115710559F0DB010D900020E9F770
:10142000AD0141505109461B570B0C94DA09089540
:10143000CF93DF93D82FC92F6115710561F0DB01C0
:101440000D900020E9F7AD0141505109461B570BA3
:101450000E94DA0902C00E948F098D2F9C2FDF9114
:10146000CF910895CF93DF9300D0CDB7DEB7FC01C5
:10147000118210821382128215821482168269836D
:101480001A82BE016F5F7F4F0E94180A0F900F9063
:10149000DF91CF910895EF92FF920F931F93CF9317
:1014A000DF93EC017B010C811D816115710511F445
:1014B00080E016C04115510591F0040F151FB801C9
:1014C0000E94BB098823A1F3288139818C819D81E9
:1014D000B701820F931F0E9426131D830C8381E0A6
:1014E000DF91CF911F910F91FF90EF900895FB0135
:1014F00044815581608171810C944B0ACF93DF93B5
:10150000DC01ED91FC91EB01A881B981309711F0DC
:101510001097C9F4109759F0EB012C813D81232BD2
:1015200031F02C9130E031952195310914C030977C
:1015300081F0DC0114968D919C911597892B49F0CF
:10154000208130E008C0BD01CF01DF91CF910C9424
:101550001D1320E030E0C901DF91CF910895FC0117
:1015600044815581FB01248135814217530729F4B9
:101570000E947E0A21E0892B09F020E0822F089545
:10158000DC0114962D913C911597232B39F481E0C1
:101590006115710511F0FB0108C00895DC01ED91A2
:1015A000FC916115710529F481E09081992349F03E
:1015B00007C0CF010E941D139C0181E0232B09F07D
:1015C00080E0089505C02091F100FC012193CF0136
:1015D0006150C8F7289884E680933E0208952FB79B
:1015E000FC012083F89467706093E9000895CF931D
:1015F000DF931F92CDB7DEB7682FCE0101960E9410
:10160000EF0A8091F20099819FBF0F90DF91CF91F7
:101610000895FF920F931F93CF93DF9300D0CDB720
:10162000DEB7F62E8A0190913D029923A9F057FF6B
:1016300016C012C0289880933E029091F1009193B9
:10164000FE12F8CF4115510521F08091F200882358
:10165000D1F089818FBF1BC04FEF5FEF18C0682F9B
:10166000CE0101967A830E94EF0A8091F20090E009
:10167000A8017A81801791070CF4AC01EF2DF72FA8
:10168000F40E84E6DDCF8BE68093E800E2CFCA015A
:101690000F900F90DF91CF911F910F91FF900895C0
:1016A000CF93DF931F92CDB7DEB741E050E0BE018C
:1016B0006F5F7F4F0E94090B019719F4298130E079
:1016C00002C02FEF3FEFC9010F90DF91CF91089536
:1016D000CF93DF931F92CDB7DEB7682FCE0101966F
:1016E0000E94EF0A8091E80085FF05C09091F2000A
:1016F00080E4891B01C080E099819FBF0F90DF913A
:10170000CF9108956F927F928F929F92AF92BF92E6
:10171000CF92DF92EF92FF920F931F93CF93DF93BD
:101720001F92CDB7DEB7782EC42EB52E80913D0224
:1017300081114CC02FEF3FEF64C0872D0E94680BD2
:10174000682E811109C0DA94A9F361E070E080E0AD
:1017500090E00E94770747C0282F30E00217130758
:101760000CF4602E06191109672DCE0101960E9416
:10177000EF0A992041F002C01092F1006A948FEFB5
:101780006812FACF17C0862D77FC02C0F7010EC091
:10179000970106C0F9012F5F3F4FE491E093F100FC
:1017A0008150C0F705C091919093F1008150D8F716
:1017B000E60CF11C8091E80085FF20C001151105A1
:1017C00011F481101BC089818FBF0DC07B01042FD4
:1017D000152F8AEFD82E90E2992E97202AE3A22E79
:1017E00030E4832E87200115110509F0A6CF5D98FE
:1017F00084E680933F022C2D3B2D03C0A092E8008D
:10180000E2CFC9010F90DF91CF911F910F91FF900F
:10181000EF90DF90CF90BF90AF909F908F907F9090
:101820006F9008951092E90010923C0210923B02D2
:1018300090933A02809339020895FF920F931F9379
:10184000CF93DF93C42FD52FDB0160E070E0EEEF84
:10185000FE2E38C09D012F5F3F4F87FF04C0FD0162
:10186000D901E49102C0EC91D90100913B021091A1
:101870003C022091390230913A0202171307B4F466
:101880009091E8009570E1F39091E80092FD1FC0FF
:10189000E093F10020913B0230913C022F5F3F4FDB
:1018A0002F733327232B11F4F092E80020913B0291
:1018B00030913C022F5F3F4F30933C0220933B021C
:1018C0006F5F7F4F6C177D0729F69A0102C02FEFDB
:1018D0003FEFC901DF91CF911F910F91FF900895C4
:1018E0001F93CF93DF931F92CDB7DEB7162F2091B2
:1018F000E80022FFFCCF612F79830E94E20A8BEF80
:101900008093E800812F7981972F0F90DF91CF91FD
:101910001F910895CF93DF931F92CDB7DEB7198241
:10192000CE0101960E940711CE0101960E94C711B7
:10193000898190E00F90DF91CF9108951F920F92CF
:101940000FB60F921124EF92FF920F931F932F93D4
:101950003F934F935F936F937F938F939F93AF9337
:10196000BF93EF93FF93CF93DF93CDB7DEB762972B
:10197000DEBFCDBF1092E9008091E80083FFE9C08F
:1019800068E0CE010A960E94E20A82EF8093E800A6
:101990009A8597FF05C08091E80080FFFCCF03C0C7
:1019A0008EEF8093E800892F807609F0B7C08B8591
:1019B000811105C01092F1001092F100C3C0813076
:1019C00009F4C0C0833009F4BDC0853049F480916A
:1019D000E80080FFFCCF8C8580688093E300B2C074
:1019E000863009F073C02D85E888F988223071F5BA
:1019F00080E090E02A8B0E94120C0E948A0C99E0F1
:101A00008E010F5F1F4FF801392F11923A95E9F7B8
:101A100099832A892A8391E09E8390E898879AEF98
:101A2000998720913B0230913C02275F3F4F3C83D6
:101A30002B838D83C7010E94120C49E050E0B8014E
:101A400080E00E941D0C0E948A0C7CC0C7012A8B7A
:101A50000E94120C2A89223241F482E290E00E9414
:101A6000D211892B09F06EC071C0213071F48889C0
:101A70009989089719F481E080933802809138029F
:101A8000882389F065E371E016C0233009F05EC059
:101A90008C85882359F0823061F0813009F056C07E
:101AA00069E571E008C067E471E005C063E971E0D1
:101AB00002C061E771E06115710509F447C0FB01DF
:101AC000449150E080E80E941D0C3CC0873009F42E
:101AD0003DC0883021F481E08093F10033C089302B
:101AE00089F5937099F5E1E3F1E081E021E096E377
:101AF0008093E9002093EB0034913093EC009093B5
:101B0000ED008F5F3196853099F78EE78093EA007C
:101B10001092EA008C8580933D0214C088899989CF
:101B20000E94120C8E85811105C0CE010A960E947A
:101B3000121106C0823051F4CE010A960E94FA11A9
:101B4000882321F08EEF8093E80003C081E2809328
:101B5000EB0062960FB6F894DEBF0FBECDBFDF91EB
:101B6000CF91FF91EF91BF91AF919F918F917F9115
:101B70006F915F914F913F912F911F910F91FF9026
:101B8000EF900F900FBE0F901F9018958093E90073
:101B90008091F200882319F08AE38093E800089589
:101BA0001F920F920FB60F9211242F933F934F93D2
:101BB0005F936F937F938F939F93AF93BF93EF93B5
:101BC000FF938091E1001092E10083FF0FC010921B
:101BD000E90091E09093EB001092EC0092E3909377
:101BE000ED0010923D0298E09093F00082FF26C035
:101BF00083E00E94C60D82E00E94F70A882321F04C
:101C000080E492E00E94E11080913F02882339F045
:101C100080913F02815080933F02882361F0809140
:101C20003E02882359F080913E02815080933E020B
:101C3000882319F003C05D9AF2CF289AFF91EF91A3
:101C4000BF91AF919F918F917F916F915F914F91D4
:101C50003F912F910F900FBE0F901F9018951092EB
:101C60003D0281E08093D70080EA8093D80082E132
:101C700089BD09B400FEFDCF61E070E080E090E036
:101C80000E94770780E98093D8008CE08093E2007F
:101C90001092E000559A209A08950F931F93CF93C6
:101CA000DF938230910510F482E090E0E091A10290
:101CB000F091A20220E030E0C0E0D0E023C04081FB
:101CC000518148175907A8F04817590761F48281D4
:101CD0009381209719F09B838A832EC09093A20250
:101CE0008093A10229C02115310529F0421753071D
:101CF00010F0A90102C0BE01DF0102811381EF01D2
:101D00009A01F8013097D9F62115310509F1281B00
:101D1000390B2430310590F412968D919C911397D4
:101D20006115710521F0FB019383828304C09093B8
:101D3000A2028093A102FD01329644C0FD01E20F90
:101D4000F31F81939193225031092D933C933AC014
:101D500020919F023091A002232B41F42091280171
:101D6000309129013093A00220939F0220912601F7
:101D7000309127012115310541F42DB73EB740912F
:101D80002A0150912B01241B350BE0919F02F09109
:101D9000A002E217F307A0F42E1B3F0B2817390708
:101DA00078F0AC014E5F5F4F2417350748F04E0FB7
:101DB0005F1F5093A00240939F028193919302C0B2
:101DC000E0E0F0E0CF01DF91CF911F910F910895F6
:101DD000EF92FF920F931F93CF93DF93009709F435
:101DE0008FC0DC01129713961C921E921297E090FE
:101DF000A102F090A202E114F10489F42D913C912A
:101E00001197280F391F80919F029091A00282178D
:101E1000930789F5B093A002A0939F0271C0E701D8
:101E200020E030E001C0EA01CA17DB0738F44A813C
:101E30005B819E0141155105B1F722C0BC01625082
:101E40007109FB01D383C28300811181AC01400F72
:101E5000511F4C175D0761F448815981400F511F94
:101E60004E5F5F4F518340834A815B81538342833E
:101E70002115310529F4B093A202A093A10240C01C
:101E8000F901B383A283E90169917991C60FD71F44
:101E9000AC17BD0779F4DC015E914E91460F571FD8
:101EA0004E5F5F4F5183408312968D919C911397A3
:101EB00093838283A0E0B0E002C0D7017C01F701E8
:101EC000828193810097C9F7C701029620813181F1
:101ED000820F931F20919F023091A002281739078B
:101EE00079F4109729F41092A2021092A10204C072
:101EF00013961C921E921297F092A002E0929F02FB
:101F0000DF91CF911F910F91FF90EF9008958F92E5
:101F10009F92AF92BF92CF92DF92EF92FF920F9378
:101F20001F93CF93DF93EC01009779F4CB01DF91FE
:101F3000CF911F910F91FF90EF90DF90CF90BF90C6
:101F4000AF909F908F900C944D0EDC01A60FB71FA1
:101F5000FC013297AE17BF0718F4C0E0D0E0ADC067
:101F60000081118106171707B0F00530110508F43C
:101F7000A4C0C80104978617970708F49EC00250B2
:101F80001109061B170B0D931D9371836083CD01FF
:101F90000E94E80E92C07B01E01AF10A5C01A00EDB
:101FA000B11EE091A102F091A202812C912C80E05F
:101FB00090E04CC0EA15FB05F1F5408151816A01C2
:101FC00022E0C20ED11CCE14DF04A8F19A012E1912
:101FD0003F097901690132E0C30ED11C2EEFA22E18
:101FE000BB24BA94AC0EBD1E25E0C216D10478F015
:101FF0004281538113965C934E9312971196FC92F3
:10200000EE92F501718360833A2F2B2F09C00E5F8A
:102010001F4F040F151FD5010D931C93328123818F
:10202000009721F0FC013283238347C03093A10243
:102030002093A20242C0808191818816990608F4FB
:102040004C0152814381CF01E52FF42F309709F0E5
:10205000B1CF80919F029091A0028A159B05F1F467
:1020600086169706D8F48091260190912701009753
:1020700041F48DB79EB720912A0130912B01821B2C
:10208000930BA817B90708F068CFB093A002A093EC
:102090009F02FE013297718360830FC0CB010E94C3
:1020A0004D0E7C01009709F458CFA801BE010E9493
:1020B0001413CE010E94E80EE701CE01DF91CF910B
:1020C0001F910F91FF90EF90DF90CF90BF90AF9056
:1020D0009F908F90089520918E0230918F02809171
:1020E000900290919102281B390B2F733327C9015D
:1020F000089520918E0230918F02809190029091EC
:1021000091022817390749F0E0919002F09191026D
:10211000E25BFD4F208130E002C02FEF3FEFC901AD
:10212000089520918E0230918F02809190029091BB
:10213000910228173907B1F0E0919002F0919102D5
:10214000E25BFD4F808120919002309191022F5FE0
:102150003F4F2F7333273093910220939002282F03
:1021600030E002C02FEF3FEFC90108950F931F9396
:10217000CF93DF931F92CDB7DEB78C016983809137
:102180003301882369F041E050E0BE016F5F7F4F6B
:1021900083E00E94820B1816190614F49C0107C0F4
:1021A00081E090E0F8019383828320E030E0C90170
:1021B0000F90DF91CF911F910F91089583E00C94C0
:1021C000C60DCF93DF9312C082E00E94500B8F3F69
:1021D0002FEF9207C9F0E0918E02F0918F02E25B3F
:1021E000FD4F8083D0938F02C0938E02C0918E02E8
:1021F000D0918F022196CF73DD278091900290912C
:102200009102C817D90701F7DF91CF910895FC011A
:1022100020812E5F208342E450E067E971E080E88E
:102220000C941D0CFC0181819081913A59F481320A
:1022300009F04BC047E050E06CE271E080E00E94A2
:102240001D0C45C0913209F040C0803239F467E07E
:1022500070E08CE291E00E94700C39C0823209F08B
:1022600034C082818093330180912C0190912D01A3
:10227000A0912E01B0912F01803B9440A105B105A2
:1022800031F58091330180FD12C087E797E7909385
:102290000108809300082BE088E190E00FB6F894E5
:1022A000A895809360000FBE2093600010C088E165
:1022B0000FB6F89480936000109260000FBEA8954E
:1022C000109201081092000802C080E0089581E099
:1022D0000895109243021092420288EE93E0A0E02B
:1022E000B0E08093440290934502A0934602B093DD
:1022F000470286E791E0909341028093400208955F
:10230000CF92DF92EF92FF920F931F93CF93DF93C1
:102310006C01EB017A01E60EF71E00E010E00BC045
:102320006991D601ED91FC910190F081E02DC601FB
:102330000995080F191FCE15DF0591F7C801DF9128
:10234000CF911F910F91FF90EF90DF90CF90089564
:10235000FF920F931F93CF93DF93EC01F62EE8814A
:10236000F9810480F581E02D09958C01E881F981DE
:102370000680F781E02D6F2DCE0109959801332756
:10238000C901DF91CF911F910F91FF900895FC013A
:1023900020812F5F208349E150E069E572E080E809
:1023A0000C941D0C45E650E062E772E080E80C9466
:1023B0001D0CEF92FF920F931F93CF93DF931F9209
:1023C000CDB7DEB789838B017A0141E050E0BE01D1
:1023D0006F5F7F4F84E00E94820BA701B80184E405
:1023E0000E94820B0F90DF91CF911F910F91FF9070
:1023F000EF900895FC0191818081813A31F481E070
:10240000913091F0933091F010C0813271F49B3093
:1024100021F482818093350105C09A3031F48281A4
:102420008093340181E00895089580E0089548E0A4
:1024300050E082E00C94D911FC01168217821086BC
:102440001186128613861482BC016C5F7F4F0C9438
:102450001712E62F683810F0E85824C0F0E067FF44
:1024600012C0E058F10921E030E001C0220FEA95E6
:10247000EAF72095DC0114963C91149732231496C8
:102480003C93E0E00FC0E752FE4FE491EE2329F1C8
:10249000E7FF08C0DC0114962C9114972D7F149649
:1024A0002C93EF7720E030E0EE2351F0DC01A20F17
:1024B000B31F16964C9116974E1302C016961C9297
:1024C0002F5F3F4F2630310579F7BC016C5F7F4F9E
:1024D0000E94171221E030E002C020E030E0C90184
:1024E0000895CF93DF93DC01E62F683810F0E858A9
:1024F00024C0F0E067FF11C0E058F10981E090E0EE
:1025000001C0880FEA95EAF714969C911497982BCE
:1025100014969C931497E0E010C0E752FE4FE491AC
:10252000E11101C040C0E7FF08C014968C911497D8
:10253000826014968C931497EF7716968C91169769
:102540008E1741F117968C9117978E1719F11896DF
:102550008C9118978E17F1F019968C9119978E1708
:10256000C9F01A968C911A978E17A1F01B968C9130
:102570001B978E1779F080E090E0ED01C80FD91F0E
:102580002E81211102C0EE8305C00196863091058F
:10259000A1F709C0BD016C5F7F4FCD010E941712EA
:1025A00021E030E008C081E090E013969C938E9388
:1025B000129720E030E0C901DF91CF910895109289
:1025C0009E02109295021092940288E891E09093F6
:1025D0009302809392020895A1E21A2EAA1BBB1BBC
:1025E000FD010DC0AA1FBB1FEE1FFF1FA217B307DF
:1025F000E407F50720F0A21BB30BE40BF50B661FF5
:10260000771F881F991F1A9469F7609570958095B8
:1026100090959B01AC01BD01CF010895EE0FFF1F06
:102620000590F491E02D0994FB01DC0102C00190BA
:102630000D9241505040D8F70895FB01DC018D9177
:10264000019080190110D9F3990B0895FB01DC0169
:1026500001900D920020E1F7089512E0CEEDD2E056
:1026600004C0FE010E9410132296C03ED107C9F794
:04267000F894FFCF0C
:1026740001011E0200040003000C0B0A2A2A2A2A64
:102684002A2A382C0000000000000000000000008E
:102694000000000000000000A302800000E1000030
:1026A4000000000001014F4E210047523100475203
:1026B40032004752330047523400475235004752E4
:1026C400360047523700475238004F464600414CC7
:1026D4004C000D0E131516191A1C232526292A2C15
:1026E400323400000000B61080116B109110791084
:1026F400DE10E11000000000A811801171122912EF
:022704001C12A5
:00000001FF
