:100000000C9470010C9498010C9498010C94980134
:100010000C9498010C9498010C9498010C949801FC
:100020000C9498010C9498010C949D0A0C946B0903
:100030000C9498010C9498010C9498010C949801DC
:100040000C9498010C947B030C9498010C949801E7
:100050000C9498010C9498010C9498010C9412043F
:100060000C9498010C9498010C9498010C949801AC
:100070000C9498010C9498010C9498010C9498019C
:100080000C9498010C9498010C9498010C9498018C
:100090000C9498010C9498010C9498010C9498017C
:1000A0000C9498010C9498010C94980100000002A3
:1000B00000080E0000030401000B00000000000017
:1000C00000000000000000000000040802011040D1
:1000D00080401020408040800802040180402010B1
:1000E00002011080102040400404040404030405AD
:1000F00002020202040302020202060606060606C5
:10010000040402020204000000002300260029006B
:100110002C002F0000000000250028002B002E00DE
:10012000310000000000240027002A002D003000CC
:1001300000C18081C112010002020000404123364B
:100140008000010102000112010002000000404194
:10015000233680000101020001180341007200648F
:1001600000750069006E006F0020004C004C0043D9
:10017000002203410072006400750069006E006F88
:100180000020004C0065006F006E0061007200648A
:10019000006F0004030904080B00020202010009B9
:1001A00004000001020200000524001001052401E2
:1001B000010104240206052406000107058103103D
:1001C000004009040100020A000000070502024085
:1001D000000007058302400000000000000000004E
:1001E000002A2B2800000000000000000000000092
:1001F0000000000000000000002C9EB4A0A1A2A4FA
:1002000034A6A7A5AE362D3738271E1F202122235E
:10021000242526B333B62EB7B89F84858687888970
:100220008A8B8C8D8E8F90919293949596979899B6
:100230009A9B9C9D2F3130A3AD3504050607080914
:100240000A0B0C0D0E0F1011121314151617181996
:100250001A1B1C1DAFB1B0B5000904020001030058
:100260000000092101010001226500070584034007
:10027000000105010902A1010901A100850105098B
:1002800019012903150025019503750181029501C6
:100290007505810305010930093109381581257F6C
:1002A000750895038106C0C005010906A1018502F4
:1002B000050719E029E71500250175019508810258
:1002C00095017508810395067508150025650507D4
:1002D000190029658100C0004602360EAC0F4C02A1
:1002E00011241FBECFEFDAE0DEBFCDBF11E0A0E0EA
:1002F000B1E0EEE0F0E202C005900D92A239B10744
:10030000D9F712E0A2E9B1E001C01D92A234B10711
:10031000E1F712E0CEEDD2E004C02297FE010E9488
:10032000DD0FC83DD107C9F70E9488060C94FA0F6B
:100330000C940000CF92DF92EF92FF920F931F93E5
:10034000CF93DF938C016B01E12CF12C1CC0C0E03A
:10035000D0E0BE01809102010E940205C701B601F2
:100360000E9486042196CF3FD10599F7BE01809166
:1003700002010E940205C701B6010E94860421976E
:10038000A8F7015011090115110509F7DF91CF9167
:100390001F910F91FF90EF90DF90CF900895EF9213
:1003A000FF920F931F93CF93DF93CDB7DEB7A6973E
:1003B0000FB6F894DEBF0FBECDBF8EE18EA3BE0197
:1003C0006A5D7F4FCE0101960E94F003882399F168
:1003D00060E671E082E991E00E9427078E010F5FDD
:1003E0001F4F780112C0F80161918F01CE014F9625
:1003F0000E944107BE01615E7F4F82E991E00E9449
:100400008607CE014F960E94990698012E193F0942
:100410008EA190E02817390734F36BE571E082E98B
:1004200091E00E948D07882331F061E070E081E067
:1004300090E00E949A01A6960FB6F894DEBF0FBE18
:10044000CDBFDF91CF911F910F91FF90EF90089555
:10045000CF93DF9361E0809102010E94F005C0E03C
:10046000D1E060E088810E94F00588810E948E02C0
:1004700080ED97E00E9434030E94710361E070E018
:1004800081E090E0DF91CF910C949A0160E671E0F9
:1004900082E991E00C940A0782E991E00C949906B4
:1004A000682780E1689F90011124622770E0362F51
:1004B0002227492F50E0242B352BCB01F4E09595D2
:1004C0008795FA95E1F728273927A3E0660F771F6C
:1004D000AA95E1F726273727C90108951F93CF93DF
:1004E000DF93EC01162F2FEF3FEF05C06991C90193
:1004F0000E9450029C011150C8F7C901DF91CF91B1
:100500001F910895982FE1E6F1E080E02191921784
:1005100021F08F5F8031D1F780E00895809305014D
:1005200008951F93CF93DF9390919D01992329F014
:1005300080919E018F5F80939E0120919F01809109
:10054000A001921759F0803510F42BE001C02DE185
:10055000820F8093A00190939F0103C08C5E8093D3
:10056000A0012091A001203A08F47AC08091A10155
:100570009091A201969587959093A2018093A101F5
:1005800030919E01353028F098609093A2018093BD
:10059000A101205A2093A00110929E018091A301F5
:1005A000882309F44DC08091A4018F5F8093A4013A
:1005B0008C3008F455C0C091A101D091A2018C2FBC
:1005C0008F730E948202182FCE01C6E09695879500
:1005D000CA95E1F70E94820290E1199F90011124CF
:1005E000822B9091990191110EC08093A501982FB3
:1005F00094509B3140F01092A3018091A6018F5F2F
:100600008093A6012DC090919901E92FF0E0E95562
:10061000FE4F80839F5F9093990190919901809103
:10062000A501981750F01092A3018091C5018F5F2A
:100630008093C50181E080939A011092A40110C0BB
:100640008091A1019091A20188339B4049F481E0FF
:100650008093A3011092A4011092990110929A0123
:10066000DF91CF911F9108959C0140E050E060E838
:1006700074E88EE190E00E94B90F1092800089E04A
:10068000809381003093890020938800EFE6F0E0AA
:1006900080818260808361E0809104010E94F00586
:1006A00060E0809105010E94F00561E08091060103
:1006B0000E94F00560919C01809106010C9428062F
:1006C00060919C01809106010E94280660E0809163
:1006D00004010E94280610929B0181E08093C901C9
:1006E00008958091C901811105C081E08093C901FD
:1006F0001092A30108951F920F920FB60F9211242A
:100700002F933F934F935F936F937F938F939F9319
:10071000AF93BF93EF93FF93809105010E945F0613
:1007200080939D0180919B018823A9F18091C8014C
:10073000982F9F5F9093C8018823D1F12CC00E940D
:1007400060038091CB019091CC0101969093CC01F4
:100750008093CB0120C02091C70181E090E0022E60
:1007600001C0880F0A94EAF7F0E0E95FFE4F60816C
:1007700068232F5F2093C701809104010E942806FF
:100780008091C701863038F01092C7018091C60170
:100790008F5F8093C6018091C801883010F010925D
:1007A000C8018091C901882351F00E94910207C0BD
:1007B000E091C6018091CA01E81708F6CCCFFF91FD
:1007C000EF91BF91AF919F918F917F916F915F91C9
:1007D0004F913F912F910F900FBE0F901F90189542
:1007E000FB0120919A012223D1F0209199012350FD
:1007F0003081231708F42083408128EA31E050E05B
:10080000B9010E94E10F10929A016091990187EA63
:1008100091E00E946E0221E0883B904F09F020E0B9
:10082000822F08951F920F920FB60F9211242F93CB
:100830003F938F939F93AF93BF938091CD019091FE
:10084000CE01A091CF01B091D0013091D501232FDD
:100850002D5F2D3720F40196A11DB11D05C0232F5A
:100860002A570296A11DB11D2093D5018093CD0179
:100870009093CE01A093CF01B093D0018091D1018C
:100880009091D201A091D301B091D4010196A11D04
:10089000B11D8093D1019093D201A093D301B09365
:1008A000D401BF91AF919F918F913F912F910F9064
:1008B0000FBE0F901F9018950F931F939FB7F8943A
:1008C0000091D1011091D2012091D3013091D40136
:1008D00086B5A89B06C08F3F21F00F5F1F4F2F4F9B
:1008E0003F4F9FBF322F212F102F0027080F111DC0
:1008F000211D311D42E0000F111F221F331F4A9599
:10090000D1F7B801C9011F910F910895CF92DF92DD
:10091000EF92FF92CF93DF936B017C010E945C0406
:10092000EB010EC00E945C046C1B7D0B683E7340A3
:1009300038F081E0C81AD108E108F108C851DC4F4D
:10094000C114D104E104F10469F7DF91CF91FF9064
:10095000EF90DF90CF900895789484B5826084BD45
:1009600084B5816084BD85B5826085BD85B58160B3
:1009700085BDEEE6F0E0808181608083E1E8F0E013
:100980001082808182608083808181608083E0E842
:10099000F0E0808181608083E1E9F0E08081826025
:1009A0008083808181608083E0E9F0E080818160E4
:1009B0008083E1ECF0E080818460808380818260CC
:1009C0008083808181608083E3ECF0E080818160BE
:1009D0008083E0ECF0E0808182608083E2ECF0E0F4
:1009E000808181608083EAE7F0E080818460808399
:1009F0008081826080838081816080838081806843
:100A0000808308951F93CF93DF93182FEB0161E04C
:100A10000E94F005209711F460E004C0CF3FD1059B
:100A200039F461E0812FDF91CF911F910C9428065A
:100A3000E12FF0E0E455FF4FE491E830E9F168F48C
:100A4000E23009F120F4E13009F076C017C0E3305C
:100A5000F9F0E43009F070C025C0EB3009F44AC069
:100A600030F4E93099F1EA3009F066C039C0EC3071
:100A700009F44DC0EE3009F05FC051C084B5806804
:100A800084BDC7BD5EC084B5806284BDC8BD59C089
:100A900080918000806880938000D0938900C0930B
:100AA00088004FC080918000806280938000D09346
:100AB0008B00C0938A0045C080919000806880932D
:100AC0009000D0939900C09398003BC08091900013
:100AD000806280939000D0939B00C0939A0031C0B5
:100AE00080919000886080939000D0939D00C09387
:100AF0009C0027C08091C00080688093C0008091D6
:100B0000C0008F7B8093C000C093CF001AC080913B
:100B1000C00080628093C000C093D00012C080915A
:100B2000C20088608093C2008091C2008B7F809356
:100B3000C200C093D20005C0C038D1050CF071CFFF
:100B40006BCFDF91CF911F910895883059F160F4F8
:100B5000823021F120F4813009F041C01CC0833083
:100B600081F08430E1F511C08B3051F128F48930E7
:100B7000E9F08A30A1F51EC08C3031F18E3079F564
:100B800029C0809180008F7703C0809180008F7D85
:100B900080938000089584B58F7702C084B58F7DDF
:100BA00084BD0895809190008F7707C08091900058
:100BB0008F7D03C080919000877F8093900008957F
:100BC0008091C0008F7703C08091C0008F7D80939B
:100BD000C00008958091C200877F8093C20008956D
:100BE000CF93DF9390E0FC01E653FF4F4491FC016B
:100BF000E851FF4F8491882341F190E0880F991FBD
:100C0000FC01EE5DFE4F25913491D9018C5E9E4F23
:100C1000FC0185919491C82FD92F9FB7F8948C919E
:100C2000611106C0409584238C938881842308C079
:100C3000623041F4242F209582238C938881842B69
:100C4000888302C0842B8C939FBFDF91CF9108953E
:100C50000F931F93CF93DF931F92CDB7DEB7282F4B
:100C600030E0F901E455FF4F8491F901E653FF4F5D
:100C70001491F901E851FF4F04910023D1F088232A
:100C800021F069830E94A5056981E02FF0E0EE0F55
:100C9000FF1FEC5EFE4F85919491DC019FB7F894A5
:100CA0008C91611103C01095812301C0812B8C931D
:100CB0009FBF0F90DF91CF911F910F910895CF9318
:100CC000DF93282F30E0F901E455FF4F8491F901BB
:100CD000E653FF4FD491F901E851FF4FC491CC2363
:100CE00089F081110E94A505EC2FF0E0EE0FFF1FA7
:100CF000EA5FFE4F85919491DC018C918D2321E078
:100D000030E011F420E030E0C901DF91CF91089587
:100D10000E94AC0486ED91E00E94FC0A0E94280229
:100D2000C0E0D0E00E94CF012097E1F30E940000D4
:100D3000F9CFFC01808191810C94B50BCF93DF93A7
:100D4000EC0188819981009711F00E94B50B1982FE
:100D500018821D821C821B821A82DF91CF91089516
:100D60000F931F93CF93DF93EC018B016F5F7F4F46
:100D7000888199810E94540C009731F0998388836F
:100D80001B830A8381E001C080E0DF91CF911F9136
:100D90000F910895CF93DF93EC0188819981892B7E
:100DA00031F08A819B818617970708F00CC0CE012D
:100DB0000E94B006882349F08C819D81892B19F40B
:100DC000E881F981108281E001C080E0DF91CF915C
:100DD0000895EF92FF920F931F93CF93DF93EC014F
:100DE0007B018A01BA010E94CA06811104C0CE01AA
:100DF0000E949E0607C01D830C83B70188819981DC
:100E00000E94F30FCE01DF91CF911F910F91FF90C0
:100E1000EF900895DC0111961C921E9213961C927D
:100E20001E92129715961C921E92149716961C925B
:100E30006115710559F0DB010D900020E9F7AD0156
:100E400041505109461B570B0C94E9060895CF9366
:100E5000DF93D82FC92F6115710561F0DB010D906B
:100E60000020E9F7AD0141505109461B570B0E9484
:100E7000E90602C00E949E068D2F9C2FDF91CF9124
:100E80000895CF93DF9300D0CDB7DEB7FC01118278
:100E900010821382128215821482168269831A824A
:100EA000BE016F5F7F4F0E9427070F900F90DF9169
:100EB000CF910895EF92FF920F931F93CF93DF93FB
:100EC000EC017B010C811D816115710511F480E03D
:100ED00016C04115510591F0040F151FB8010E946D
:100EE000CA068823A1F3288139818C819D81B701AD
:100EF000820F931F0E94F30F1D830C8381E0DF910B
:100F0000CF911F910F91FF90EF900895FB014481C5
:100F10005581608171810C945A07DC0114962D91E2
:100F20003C911597232B39F481E06115710511F07F
:100F3000FB0108C00895DC01ED91FC91611571057C
:100F400029F481E09081992349F007C0CF010E94E4
:100F5000EA0F9C0181E0232B09F080E0089505C091
:100F60002091F100FC012193CF016150C8F728982E
:100F700084E68093DD0108952FB7FC012083F89467
:100F800067706093E9000895CF93DF931F92CDB708
:100F9000DEB7682FCE0101960E94BC078091F20057
:100FA00099819FBF0F90DF91CF910895FF920F938A
:100FB0001F93CF93DF9300D0CDB7DEB7F62E8A0113
:100FC0009091DC019923A9F057FF16C012C0289810
:100FD0008093DD019091F1009193FE12F8CF4115BD
:100FE000510521F08091F2008823D1F089818FBFD3
:100FF0001BC04FEF5FEF18C0682FCE0101967A83B8
:101000000E94BC078091F20090E0A8017A818017CD
:1010100091070CF4AC01EF2DF72FF40E84E6DDCF31
:101020008BE68093E800E2CFCA010F900F90DF912A
:10103000CF911F910F91FF900895CF93DF931F924F
:10104000CDB7DEB741E050E0BE016F5F7F4F0E9439
:10105000D607019719F4298130E002C02FEF3FEF46
:10106000C9010F90DF91CF910895CF93DF931F9225
:10107000CDB7DEB7682FCE0101960E94BC078091E4
:10108000E80085FF05C09091F20080E4891B01C053
:1010900080E099819FBF0F90DF91CF9108956F926B
:1010A0007F928F929F92AF92BF92CF92DF92EF92F8
:1010B000FF920F931F93CF93DF931F92CDB7DEB7AD
:1010C000782EC42EB52E8091DC0181114CC02FEFFB
:1010D0003FEF64C0872D0E943508682E811109C03A
:1010E000DA94A9F361E070E080E090E00E94860469
:1010F00047C0282F30E0021713070CF4602E0619A2
:101100001109672DCE0101960E94BC07992041F07C
:1011100002C01092F1006A948FEF6812FACF17C0E4
:10112000862D77FC02C0F7010EC0970106C0F901B9
:101130002F5F3F4FE491E093F1008150C0F705C06D
:1011400091919093F1008150D8F7E60CF11C8091B9
:10115000E80085FF20C00115110511F481101BC0A6
:1011600089818FBF0DC07B01042F152F8AEFD82EE8
:1011700090E2992E97202AE3A22E30E4832E872036
:101180000115110509F0A6CF5D9884E68093DE0174
:101190002C2D3B2D03C0A092E800E2CFC9010F9097
:1011A000DF91CF911F910F91FF90EF90DF90CF9043
:1011B000BF90AF909F908F907F906F900895109206
:1011C000E9001092DB011092DA019093D90180932B
:1011D000D8010895FF920F931F93CF93DF93C42FED
:1011E000D52FDB0160E070E0EEEFFE2E38C09D01F0
:1011F0002F5F3F4F87FF04C0FD01D901E49102C07A
:10120000EC91D9010091DA011091DB012091D80114
:101210003091D90102171307B4F49091E80095704A
:10122000E1F39091E80092FD1FC0E093F10020915E
:10123000DA013091DB012F5F3F4F2F733327232BD0
:1012400011F4F092E8002091DA013091DB012F5F78
:101250003F4F3093DB012093DA016F5F7F4F6C17B4
:101260007D0729F69A0102C02FEF3FEFC901DF91F8
:10127000CF911F910F91FF9008951F93CF93DF930C
:101280001F92CDB7DEB7162F2091E80022FFFCCFCA
:10129000612F79830E94AF078BEF8093E800812F45
:1012A0007981972F0F90DF91CF911F910895CF9360
:1012B000DF931F92CDB7DEB71982CE0101960E944F
:1012C000D40DCE0101960E94940E898190E00F907A
:1012D000DF91CF9108951F920F920FB60F921124B4
:1012E000EF92FF920F931F932F933F934F935F9330
:1012F0006F937F938F939F93AF93BF93EF93FF93DE
:10130000CF93DF93CDB7DEB76297DEBFCDBF10922C
:10131000E9008091E80083FFE9C068E0CE010A9609
:101320000E94AF0782EF8093E8009A8597FF05C07F
:101330008091E80080FFFCCF03C08EEF8093E8002F
:10134000892F807609F0B7C08B85811105C0109276
:10135000F1001092F100C3C0813009F4C0C08330A5
:1013600009F4BDC0853049F48091E80080FFFCCFCE
:101370008C8580688093E300B2C0863009F073C02A
:101380002D85E888F988223071F580E090E02A8B7D
:101390000E94DF080E94570999E08E010F5F1F4FDE
:1013A000F801392F11923A95E9F799832A892A830E
:1013B00091E09E8390E898879AEF99872091DA01CF
:1013C0003091DB01275F3F4F3C832B838D83C70127
:1013D0000E94DF0849E050E0B80180E00E94EA087E
:1013E0000E9457097CC0C7012A8B0E94DF082A8906
:1013F000223241F482E290E00E949F0E892B09F094
:101400006EC071C0213071F488899989089719F4E8
:1014100081E08093D7018091D701882389F065E32B
:1014200071E016C0233009F05EC08C85882359F026
:10143000823061F0813009F056C069E571E008C082
:1014400067E471E005C063E971E002C061E771E043
:101450006115710509F447C0FB01449150E080E833
:101460000E94EA083CC0873009F43DC0883021F46E
:1014700081E08093F10033C0893089F5937099F54C
:10148000E1E3F1E081E021E096E38093E90020933D
:10149000EB0034913093EC009093ED008F5F319628
:1014A000853099F78EE78093EA001092EA008C85E8
:1014B0008093DC0114C0888999890E94DF088E8599
:1014C000811105C0CE010A960E94DF0D06C0823050
:1014D00051F4CE010A960E94C70E882321F08EEFA8
:1014E0008093E80003C081E28093EB0062960FB620
:1014F000F894DEBF0FBECDBFDF91CF91FF91EF918A
:10150000BF91AF919F918F917F916F915F914F911B
:101510003F912F911F910F91FF90EF900F900FBE71
:101520000F901F9018958093E9008091F200882316
:1015300019F08AE38093E80008951F920F920FB686
:101540000F9211242F933F934F935F936F937F9349
:101550008F939F93AF93BF93EF93FF938091E1009D
:101560001092E10083FF0FC01092E90091E0909388
:10157000EB001092EC0092E39093ED001092DC01EE
:1015800098E09093F00082FF26C083E00E94930AC7
:1015900082E00E94C407882321F08FED91E00E9431
:1015A000AE0D8091DE01882339F08091DE018150FB
:1015B0008093DE01882361F08091DD01882359F05A
:1015C0008091DD0181508093DD01882319F003C0F3
:1015D0005D9AF2CF289AFF91EF91BF91AF919F91C1
:1015E0008F917F916F915F914F913F912F910F90CC
:1015F0000FBE0F901F9018951092DC0181E0809330
:10160000D70080EA8093D80082E189BD09B400FE4A
:10161000FDCF61E070E080E090E00E94860480E908
:101620008093D8008CE08093E2001092E000559AFD
:10163000209A08950F931F93CF93DF9382309105E3
:1016400010F482E090E0E0914002F091410220E04D
:1016500030E0C0E0D0E023C04081518148175907F5
:10166000A8F04817590761F482819381209719F0F7
:101670009B838A832EC0909341028093400229C0AD
:101680002115310529F04217530710F0A90102C0B6
:10169000BE01DF0102811381EF019A01F801309749
:1016A000D9F62115310509F1281B390B24303105F4
:1016B00090F412968D919C9113976115710521F00C
:1016C000FB019383828304C0909341028093400284
:1016D000FD01329644C0FD01E20FF31F8193919307
:1016E000225031092D933C933AC020913E02309113
:1016F0003F02232B41F420914D0130914E01309354
:101700003F0220933E0220914B0130914C01211564
:10171000310541F42DB73EB740914F015091500132
:10172000241B350BE0913E02F0913F02E217F307D4
:10173000A0F42E1B3F0B2817390778F0AC014E5F41
:101740005F4F2417350748F04E0F5F1F50933F023D
:1017500040933E028193919302C0E0E0F0E0CF011C
:10176000DF91CF911F910F910895EF92FF920F9308
:101770001F93CF93DF93009709F48FC0DC0112977A
:1017800013961C921E921297E0904002F090410234
:10179000E114F10489F42D913C911197280F391F20
:1017A00080913E0290913F028217930789F5B09392
:1017B0003F02A0933E0271C0E70120E030E001C08B
:1017C000EA01CA17DB0738F44A815B819E014115A3
:1017D0005105B1F722C0BC0162507109FB01D383EE
:1017E000C28300811181AC01400F511F4C175D076E
:1017F00061F448815981400F511F4E5F5F4F518303
:1018000040834A815B81538342832115310529F44A
:10181000B0934102A093400240C0F901B383A28378
:10182000E90169917991C60FD71FAC17BD0779F40B
:10183000DC015E914E91460F571F4E5F5F4F518303
:10184000408312968D919C91139793838283A0E09D
:10185000B0E002C0D7017C01F7018281938100973B
:10186000C9F7C701029620813181820F931F209111
:101870003E0230913F022817390779F4109729F476
:10188000109241021092400204C013961C921E92C4
:101890001297F0923F02E0923E02DF91CF911F91AA
:1018A0000F91FF90EF9008958F929F92AF92BF9209
:1018B000CF92DF92EF92FF920F931F93CF93DF931C
:1018C000EC01009779F4CB01DF91CF911F910F913B
:1018D000FF90EF90DF90CF90BF90AF909F908F9050
:1018E0000C941A0BDC01A60FB71FFC013297AE1740
:1018F000BF0718F4C0E0D0E0ADC000811181061729
:101900001707B0F00530110508F4A4C0C80104970A
:101910008617970708F49EC002501109061B170B83
:101920000D931D9371836083CD010E94B50B92C00E
:101930007B01E01AF10A5C01A00EB11EE0914002A9
:10194000F0914102812C912C80E090E04CC0EA158E
:10195000FB05F1F5408151816A0122E0C20ED11CE4
:10196000CE14DF04A8F19A012E193F09790169010B
:1019700032E0C30ED11C2EEFA22EBB24BA94AC0EC3
:10198000BD1E25E0C216D10478F042815381139622
:101990005C934E9312971196FC92EE92F50171832F
:1019A00060833A2F2B2F09C00E5F1F4F040F151FA6
:1019B000D5010D931C9332812381009721F0FC0106
:1019C0003283238347C0309340022093410242C0B8
:1019D000808191818816990608F44C0152814381D7
:1019E000CF01E52FF42F309709F0B1CF80913E025F
:1019F00090913F028A159B05F1F486169706D8F45C
:101A000080914B0190914C01009741F48DB79EB7A6
:101A100020914F0130915001821B930BA817B907F9
:101A200008F068CFB0933F02A0933E02FE013297C8
:101A3000718360830FC0CB010E941A0B7C01009759
:101A400009F458CFA801BE010E94E10FCE010E9407
:101A5000B50BE701CE01DF91CF911F910F91FF9060
:101A6000EF90DF90CF90BF90AF909F908F900895B0
:101A700020912D0230912E0280912F029091300200
:101A8000281B390B2F733327C901089520912D028C
:101A900030912E0280912F02909130022817390741
:101AA00049F0E0912F02F0913002E351FE4F208186
:101AB00030E002C02FEF3FEFC901089520912D02C1
:101AC00030912E0280912F02909130022817390711
:101AD000B1F0E0912F02F0913002E351FE4F80818E
:101AE00020912F02309130022F5F3F4F2F73332709
:101AF0003093300220932F02282F30E002C02FEFC6
:101B00003FEFC90108950F931F93CF93DF931F9267
:101B1000CDB7DEB78C01698380915801882369F0C5
:101B200041E050E0BE016F5F7F4F83E00E944F08AD
:101B30001816190614F49C0107C081E090E0F80122
:101B40009383828320E030E0C9010F90DF91CF9131
:101B50001F910F91089583E00C94930ACF93DF9324
:101B600012C082E00E941D088F3F2FEF9207C9F03C
:101B7000E0912D02F0912E02E351FE4F8083D0932D
:101B80002E02C0932D02C0912D02D0912E022196DB
:101B9000CF73DD2780912F0290913002C817D907AB
:101BA00001F7DF91CF910895FC0120812E5F208302
:101BB00042E450E067E971E080E80C94EA08FC0137
:101BC00081819081913A59F4813209F04BC047E00C
:101BD00050E061E571E080E00E94EA0845C0913282
:101BE00009F040C0803239F467E070E081E591E0AF
:101BF0000E943D0939C0823209F034C0828180934D
:101C000058018091510190915201A0915301B091DE
:101C10005401803B9440A105B10531F580915801F4
:101C200080FD12C087E797E7909301088093000832
:101C30002BE088E190E00FB6F894A89580936000BF
:101C40000FBE2093600010C088E10FB6F894809317
:101C50006000109260000FBEA895109201081092CB
:101C6000000802C080E0089581E008951092E2012A
:101C70001092E10188EE93E0A0E0B0E08093E301F0
:101C80009093E401A093E501B093E60185E791E02C
:101C90009093E0018093DF010895CF92DF92EF925D
:101CA000FF920F931F93CF93DF936C01EB017A01A7
:101CB000E60EF71E00E010E00BC06991D601ED9131
:101CC000FC910190F081E02DC6010995080F191FC4
:101CD000CE15DF0591F7C801DF91CF911F910F91CC
:101CE000FF90EF90DF90CF900895FF920F931F9396
:101CF000CF93DF93EC01F62EE881F9810480F58122
:101D0000E02D09958C01E881F9810680F781E02DAD
:101D10006F2DCE01099598013327C901DF91CF912D
:101D20001F910F91FF900895FC0120812F5F208368
:101D300049E150E069E572E080E80C94EA0845E684
:101D400050E062E772E080E80C94EA08EF92FF92BC
:101D50000F931F93CF93DF931F92CDB7DEB7898385
:101D60008B017A0141E050E0BE016F5F7F4F84E05C
:101D70000E944F08A701B80184E40E944F080F9009
:101D8000DF91CF911F910F91FF90EF900895FC018B
:101D900091818081813A31F481E0913091F09330EA
:101DA00091F010C0813271F49B3021F482818093D4
:101DB0005A0105C09A3031F482818093590181E043
:101DC0000895089580E0089548E050E082E00C9482
:101DD000A60EFC01168217821086118612861386C3
:101DE0001482BC016C5F7F4F0C94E40EE62F6838C0
:101DF00010F0E85824C0F0E067FF12C0E058F10985
:101E000021E030E001C0220FEA95EAF72095DC01DD
:101E100014963C911497322314963C93E0E00FC043
:101E2000E752FE4FE491EE2329F1E7FF08C0DC0101
:101E300014962C9114972D7F14962C93EF7720E015
:101E400030E0EE2351F0DC01A20FB31F16964C9147
:101E500016974E1302C016961C922F5F3F4F2630E6
:101E6000310579F7BC016C5F7F4F0E94E40E21E0E1
:101E700030E002C020E030E0C9010895CF93DF9345
:101E8000DC01E62F683810F0E85824C0F0E067FF66
:101E900011C0E058F10981E090E001C0880FEA9597
:101EA000EAF714969C911497982B14969C93149788
:101EB000E0E010C0E752FE4FE491E11101C040C0E4
:101EC000E7FF08C014968C911497826014968C9347
:101ED0001497EF7716968C9116978E1741F11796F7
:101EE0008C9117978E1719F118968C9118978E1759
:101EF000F1F019968C9119978E17C9F01A968C915A
:101F00001A978E17A1F01B968C911B978E1779F05C
:101F100080E090E0ED01C80FD91F2E81211102C091
:101F2000EE8305C0019686309105A1F709C0BD0179
:101F30006C5F7F4FCD010E94E40E21E030E008C0CD
:101F400081E090E013969C938E93129720E030E00E
:101F5000C901DF91CF91089510923D021092340291
:101F60001092330287E891E090933202809331021D
:101F70000895A1E21A2EAA1BBB1BFD010DC0AA1FCA
:101F8000BB1FEE1FFF1FA217B307E407F50720F0E2
:101F9000A21BB30BE40BF50B661F771F881F991F5D
:101FA0001A9469F760957095809590959B01AC01A6
:101FB000BD01CF010895EE0FFF1F0590F491E02DB4
:101FC0000994FB01DC0102C001900D924150504088
:101FD000D8F70895FB01DC018D9101908019011063
:101FE000D9F3990B0895FB01DC0101900D920020BB
:101FF000E1F7089512E0CEEDD2E004C0FE010E94A8
:0E200000DD0F2296C03ED107C9F7F894FFCF3E
:10200E00060003000C0B0A2A2A2A2A2A2A382C0038
:10201E0000000000000000000000000000000000B2
:10202E0000000000000000000000000000000000A2
:10203E000000000000000000000000000000000092
:10204E0000000000000000000000000000420280BE
:10205E000000E1000000000000010168656C6C6F7B
:10206E00000D0E131516191A1C232526292A2C329B
:10207E003400000000830D4D0E380D5E0D460DAB85
:10208E000DAE0D00000000750E4D0E3E0FF60EE962
:02209E000E0032
:00000001FF
