:100000000C9470010C949C050C94C9050C94F60595
:100010000C9423060C9498010C9498010C945006AF
:100020000C9498010C9498010C943A0D0C94080CC3
:100030000C9498010C9498010C9498010C949801DC
:100040000C9498010C94B5040C9498010C949801AC
:100050000C9498010C9498010C9498010C947D06D2
:100060000C9498010C9498010C9498010C949801AC
:100070000C9498010C9498010C9498010C9498019C
:100080000C9498010C9498010C9498010C9498018C
:100090000C9498010C9498010C9498010C9498017C
:1000A0000C9498010C9498010C94980100000002A3
:1000B00000080E0000030401000B00000000000017
:1000C00000000000000000000000040802011040D1
:1000D00080401020408040800802040180402010B1
:1000E00002011080102040400404040404030405AD
:1000F00002020202040302020202060606060606C5
:10010000040402020204000000002300260029006B
:100110002C002F0000000000250028002B002E00DE
:10012000310000000000240027002A002D003000CC
:1001300000C18081C112010002020000404123364B
:100140008000010102000112010002000000404194
:10015000233680000101020001180341007200648F
:1001600000750069006E006F0020004C004C0043D9
:10017000002203410072006400750069006E006F88
:100180000020004C0065006F006E0061007200648A
:10019000006F0004030904080B00020202010009B9
:1001A00004000001020200000524001001052401E2
:1001B000010104240206052406000107058103103D
:1001C000004009040100020A000000070502024085
:1001D000000007058302400000000000000000004E
:1001E000002A2B2800000000000000000000000092
:1001F0000000000000000000002C9EB4A0A1A2A4FA
:1002000034A6A7A5AE362D3738271E1F202122235E
:10021000242526B333B62EB7B89F84858687888970
:100220008A8B8C8D8E8F90919293949596979899B6
:100230009A9B9C9D2F3130A3AD3504050607080914
:100240000A0B0C0D0E0F1011121314151617181996
:100250001A1B1C1DAFB1B0B5000904020001030058
:100260000000092101010001226500070584034007
:10027000000105010902A1010901A100850105098B
:1002800019012903150025019503750181029501C6
:100290007505810305010930093109381581257F6C
:1002A000750895038106C0C005010906A1018502F4
:1002B000050719E029E71500250175019508810258
:1002C00095017508810395067508150025650507D4
:1002D000190029658100C0002503D31049125F036E
:1002E00011241FBECFEFDAE0DEBFCDBF11E0A0E0EA
:1002F000B1E0E8E4F5E202C005900D92A83BB10739
:10030000D9F712E0A8EBB1E001C01D92A03DB10702
:10031000E1F712E0CEEDD2E004C02297FE010E9488
:100320007A12C83DD107C9F70E9405090C949712AB
:100330000C9400008CE192E00E946403882331F069
:100340000E94A80481E08093000108958091FB0140
:1003500081110DC081E08093FB010E94C70660936C
:10036000F7017093F8018093F9019093FA010895D1
:1003700088EB91E00E9416098FEB91E00E9416092C
:1003800086EC91E00E9416098DEC91E00E9416091E
:1003900084ED91E00E9416098BED91E00E94160910
:1003A00082EE91E00E94160989EE91E00E94160902
:1003B00080EF91E00C941609EF92FF920F931F9338
:1003C000CF93DF93CDB7DEB72E970FB6F894DEBF8D
:1003D0000FBECDBF7E0188E0E80EF11C62E671E041
:1003E000C7010E9487090EEF11E011C0F801619169
:1003F0008F01CE0101960E94BE09BE016F5F7F4F43
:10040000C7010E94030ACE0101960E941609A801A5
:100410004E5F51402091010130E04217530734F301
:1004200060EF71E0CE0108960E943B0A811143C043
:1004300069EE71E0CE0108960E943B0A81113EC030
:1004400062EE71E0CE0108960E943B0A811139C02C
:100450006BED71E0CE0108960E943B0A811134C019
:1004600064ED71E0CE0108960E943B0A81112FC015
:100470006DEC71E0CE0108960E943B0A81112AC002
:1004800066EC71E0CE0108960E943B0A811125C0FE
:100490006FEB71E0CE0108960E943B0A811120C0EB
:1004A00068EB71E0CE0108960E943B0A81111BC0E7
:1004B0000BE010E01AC001E010E017C002E010E00D
:1004C00014C003E010E011C004E010E00EC005E02D
:1004D00010E00BC006E010E008C007E010E005C027
:1004E00008E010E002C00AE010E0CE0108960E9489
:1004F0001609C8012E960FB6F894DEBF0FBECDBF09
:10050000DF91CF911F910F91FF90EF90089510927E
:10051000FD011092FC010E94B2048CE192E00C9467
:1005200068030F931F93CF93809106010E94DC080C
:10053000892B19F41092FB0115C00E94C706009187
:10054000F7011091F8012091F9013091FA010C5353
:10055000164F2F4F3F4F061717072807390710F47C
:100560000E948702C1E0C093000161E071E08EEF5C
:1005700091E00E942A05882361F0109200010E94F8
:10058000DC019093FD018093FC01089714F4C09363
:10059000000161E071E08EEF91E0CF911F910F912A
:1005A0000C942A05CF92DF92EF92FF920F931F9344
:1005B000CF93DF938C016B01E12CF12C1CC0C0E0C8
:1005C000D0E0BE01809104010E947F07C701B601FF
:1005D0000E9403072196CF3FD10599F7BE01809174
:1005E00004010E947F07C701B6010E9403072197FB
:1005F000A8F7015011090115110509F7DF91CF91F5
:100600001F910F91FF90EF90DF90CF90089561E0E0
:10061000809104010E946D08809102010E94C5032F
:1006200080ED97E00E946B0461E070E081E090E073
:100630000E94D20243E050E06AE971E080E00E944B
:100640004C058CE192E00C9468038CE192E00E94EE
:1006500061036FE571E080EF91E00E94870963E636
:1006600071E089EE91E00E94870967E671E082EE11
:1006700091E00E9487096BE671E08BED91E00E94AA
:1006800087096FE671E084ED91E00E94870963E7D6
:1006900071E08DEC91E00E94870967E771E086ECDC
:1006A00091E00E9487096BE771E08FEB91E00E9477
:1006B00087096FE771E088EB91E00C9487090C944F
:1006C000B801FC0110820895FC0180811082089518
:1006D000CF93DF93EC0164E670E080E090E00E944D
:1006E000030783B7817F846083BF81E0888383B7FA
:1006F000816083BF83B7816083BF889583B78E7F16
:1007000083BF83B78E7F83BFDF91CF910895682722
:1007100080E1689F90011124622770E0362F222724
:10072000492F50E0242B352BCB01F4E0959587958C
:10073000FA95E1F728273927A3E0660F771FAA95D6
:10074000E1F726273727C90108951F93CF93DF9339
:10075000EC01162F2FEF3FEF05C06991C9010E94F0
:1007600087039C011150C8F7C901DF91CF911F91F8
:100770000895982FE7E8F1E080E02191921721F0A9
:100780008F5F8031D1F780E008958093090108954B
:100790001F93CF93DF9390912102992329F08091A9
:1007A00022028F5F809322022091230280912402F3
:1007B000921759F0803510F42BE001C02DE1820F23
:1007C000809324029093230203C08C5E80932402C2
:1007D00020912402203A08F47AC080912502909159
:1007E0002602969587959093260280932502309154
:1007F0002202353028F098609093260280932502DB
:10080000205A2093240210922202809127028823EA
:1008100009F44DC0809128028F5F809328028C30AC
:1008200008F455C0C0912502D09126028C2F8F73F9
:100830000E94B903182FCE01C6E096958795CA95F8
:10084000E1F70E94B90390E1199F90011124822BD6
:1008500090911D0291110EC080932902982F9450FF
:100860009B3140F01092270280912A028F5F809383
:100870002A022DC090911D02E92FF0E0E55DFD4FA9
:1008800080839F5F90931D0290911D0280912902A9
:10089000981750F010922702809149028F5F809341
:1008A000490281E080931E021092280210C08091BC
:1008B00025029091260288339B4049F481E0809381
:1008C00027021092280210921D0210921E02DF9140
:1008D000CF911F9108959C0140E050E060E874E8DA
:1008E0008EE190E00E9456121092800089E0809381
:1008F00081003093890020938800EFE6F0E080814A
:100900008260808361E0809108010E946D0860E050
:10091000809109010E946D0861E080910A010E94A6
:100920006D086091200280910A010C94A5086091E5
:10093000200280910A010E94A50860E080910801D0
:100940000E94A50810921F0281E080934D02089535
:1009500080914D02811105C081E080934D0210927B
:100960002702089510924D0208951F920F920FB61C
:100970000F9211242F933F934F935F936F937F9325
:100980008F939F93AF93BF93EF93FF938091090150
:100990000E94DC088093210280911F028823A9F124
:1009A00080914C02982F9F5F90934C028823D1F145
:1009B0002CC00E94970480914F02909150020196A2
:1009C0009093500280934F0220C020914B0281E00F
:1009D00090E0022E01C0880F0A94EAF7F0E0E55F8C
:1009E000FE4F608168232F5F20934B0280910801A6
:1009F0000E94A50880914B02863038F010924B027D
:100A000080914A028F5F80934A0280914C02883025
:100A100010F010924C0280914D02882351F00E94F8
:100A2000C80307C0E0914A0280914E02E81708F619
:100A3000CCCFFF91EF91BF91AF919F918F917F911B
:100A40006F915F914F913F912F910F900FBE0F903B
:100A50001F901895FB0120911E022223D1F02091B6
:100A60001D0223503081231708F4208340812CE29B
:100A700032E050E0B9010E947E1210921E02609195
:100A80001D028BE292E00E94A50321E0883B904F7B
:100A900009F020E0822F0895853008F04CC0E82F3F
:100AA000F0E0EE0FFF1FEF5AFD4F7183608382303D
:100AB000E1F018F4813029F40CC0833019F184304E
:100AC00071F1809169008C7F842B80936900E89A92
:100AD000089580916900440F551F440F551F837F6F
:100AE000842B80936900E99A08958091690034E02D
:100AF000440F551F3A95E1F78F7C842B8093690052
:100B0000EA9A08958091690026E0440F551F2A95BE
:100B1000E1F78F73842B80936900EB9A089580919D
:100B20006A0094E0440F551F9A95E1F78F7C842B5F
:100B300080936A00EE9A08951F920F920FB60F925B
:100B400011242F933F934F935F936F937F938F93D2
:100B50009F93AF93BF93EF93FF9380915102909136
:100B60005202892B29F0E0915102F091520209952D
:100B7000FF91EF91BF91AF919F918F917F916F9175
:100B80005F914F913F912F910F900FBE0F901F904B
:100B900018951F920F920FB60F9211242F933F9327
:100BA0004F935F936F937F938F939F93AF93BF9375
:100BB000EF93FF938091530290915402892B29F077
:100BC000E0915302F09154020995FF91EF91BF918A
:100BD000AF919F918F917F916F915F914F913F91D5
:100BE0002F910F900FBE0F901F9018951F920F928C
:100BF0000FB60F9211242F933F934F935F936F93F0
:100C00007F938F939F93AF93BF93EF93FF938091C5
:100C1000550290915602892B29F0E0915502F091EE
:100C200056020995FF91EF91BF91AF919F918F91DE
:100C30007F916F915F914F913F912F910F900FBED8
:100C40000F901F9018951F920F920FB60F921124BC
:100C50002F933F934F935F936F937F938F939F93C4
:100C6000AF93BF93EF93FF938091570290915802F7
:100C7000892B29F0E0915702F09158020995FF91D4
:100C8000EF91BF91AF919F918F917F916F915F9104
:100C90004F913F912F910F900FBE0F901F9018957D
:100CA0001F920F920FB60F9211242F933F934F93E1
:100CB0005F936F937F938F939F93AF93BF93EF93C4
:100CC000FF938091590290915A02892B29F0E0916B
:100CD0005902F0915A020995FF91EF91BF91AF919E
:100CE0009F918F917F916F915F914F913F912F9144
:100CF0000F900FBE0F901F9018951F920F920FB676
:100D00000F9211242F933F938F939F93AF93BF9391
:100D100080915B0290915C02A0915D02B0915E02B5
:100D200030916302232F2D5F2D3720F40196A11DF2
:100D3000B11D05C0232F2A570296A11DB11D209376
:100D4000630280935B0290935C02A0935D02B09378
:100D50005E0280915F0290916002A0916102B09169
:100D600062020196A11DB11D80935F029093600203
:100D7000A0936102B0936202BF91AF919F918F9156
:100D80003F912F910F900FBE0F901F9018950F93CA
:100D90001F938FB7F89400915B0210915C02209131
:100DA0005D0230915E028FBFB801C9011F910F91A2
:100DB00008950F931F939FB7F89400915F021091CD
:100DC0006002209161023091620286B5A89B06C044
:100DD0008F3F21F00F5F1F4F2F4F3F4F9FBF322F8D
:100DE000212F102F0027080F111D211D311D42E05A
:100DF000000F111F221F331F4A95D1F7B801C901F7
:100E00001F910F910895CF92DF92EF92FF92CF93AF
:100E1000DF936B017C010E94D906EB010EC00E949A
:100E2000D9066C1B7D0B683E734038F081E0C81A10
:100E3000D108E108F108C851DC4FC114D104E10424
:100E4000F10469F7DF91CF91FF90EF90DF90CF90A1
:100E50000895789484B5826084BD84B5816084BD32
:100E600085B5826085BD85B5816085BDEEE6F0E023
:100E7000808181608083E1E8F0E01082808182607F
:100E80008083808181608083E0E8F0E08081816000
:100E90008083E1E9F0E080818260808380818160ED
:100EA0008083E0E9F0E0808181608083E1ECF0E024
:100EB0008081846080838081826080838081816082
:100EC0008083E3ECF0E0808181608083E0ECF0E0FF
:100ED000808182608083E2ECF0E0808181608083A9
:100EE000EAE7F0E080818460808380818260808393
:100EF00080818160808380818068808308951F93D2
:100F0000CF93DF93182FEB0161E00E946D082097CB
:100F100011F460E004C0CF3FD10539F461E0812FC6
:100F2000DF91CF911F910C94A508E12FF0E0E455DB
:100F3000FF4FE491E830E9F168F4E23009F120F480
:100F4000E13009F076C017C0E330F9F0E43009F081
:100F500070C025C0EB3009F44AC030F4E93099F193
:100F6000EA3009F066C039C0EC3009F44DC0EE300B
:100F700009F05FC051C084B5806884BDC7BD5EC044
:100F800084B5806284BDC8BD59C0809180008068EE
:100F900080938000D0938900C09388004FC08091D7
:100FA0008000806280938000D0938B00C0938A0081
:100FB00045C080919000806880939000D093990004
:100FC000C09398003BC08091900080628093900015
:100FD000D0939B00C0939A0031C0809190008860AC
:100FE00080939000D0939D00C0939C0027C0809177
:100FF000C00080688093C0008091C0008F7B809388
:10100000C000C093CF001AC08091C000806280935E
:10101000C000C093D00012C08091C200886080934D
:10102000C2008091C2008B7F8093C200C093D20027
:1010300005C0C038D1050CF071CF6BCFDF91CF91D7
:101040001F910895883059F160F4823021F120F425
:10105000813009F041C01CC0833081F08430E1F55B
:1010600011C08B3051F128F48930E9F08A30A1F5B4
:101070001EC08C3031F18E3079F529C0809180000E
:101080008F7703C0809180008F7D809380000895CA
:1010900084B58F7702C084B58F7D84BD089580911B
:1010A00090008F7707C0809190008F7D03C0809162
:1010B0009000877F8093900008958091C0008F7783
:1010C00003C08091C0008F7D8093C00008958091FF
:1010D000C200877F8093C2000895CF93DF9390E092
:1010E000FC01E653FF4F4491FC01E851FF4F84910E
:1010F000882341F190E0880F991FFC01EE5DFE4FBF
:1011000025913491D9018C5E9E4FFC01859194917B
:10111000C82FD92F9FB7F8948C91611106C04095C4
:1011200084238C938881842308C0623041F4242F67
:10113000209582238C938881842B888302C0842B02
:101140008C939FBFDF91CF9108950F931F93CF93FF
:10115000DF931F92CDB7DEB7282F30E0F901E455B9
:10116000FF4F8491F901E653FF4F1491F901E851C3
:10117000FF4F04910023D1F0882321F069830E945E
:1011800022086981E02FF0E0EE0FFF1FEC5EFE4FBA
:1011900085919491DC019FB7F8948C91611103C003
:1011A0001095812301C0812B8C939FBF0F90DF91FD
:1011B000CF911F910F910895CF93DF93282F30E0A7
:1011C000F901E455FF4F8491F901E653FF4FD491A3
:1011D000F901E851FF4FC491CC2389F081110E949D
:1011E0002208EC2FF0E0EE0FFF1FEA5FFE4F859123
:1011F0009491DC018C918D2321E030E011F420E00A
:1012000030E0C901DF91CF9108950E94290784E65B
:1012100092E00E94990D0E940703C0E0D0E00E9476
:1012200091022097E1F30E940000F9CFFC01808138
:1012300091810C94520ECF93DF93EC0188819981B8
:10124000009711F00E94520E198218821D821C8292
:101250001B821A82DF91CF9108950F931F93CF9332
:10126000DF93EC018B016F5F7F4F888199810E9432
:10127000F10E009731F0998388831B830A8381E004
:1012800001C080E0DF91CF911F910F910895CF931E
:10129000DF93EC0188819981892B31F08A819B81D0
:1012A0008617970708F00CC0CE010E942D098823ED
:1012B00049F08C819D81892B19F4E881F981108294
:1012C00081E001C080E0DF91CF910895EF92FF921D
:1012D0000F931F93CF93DF93EC017B018A01BA0137
:1012E0000E944709811104C0CE010E941B0907C05A
:1012F0001D830C83B701888199810E949012CE01D1
:10130000DF91CF911F910F91FF90EF900895DC0135
:1013100011961C921E9213961C921E92129715966D
:101320001C921E92149716961C926115710559F025
:10133000DB010D900020E9F7AD0141505109461B3A
:10134000570B0C9466090895CF93DF93D82FC92FBC
:101350006115710561F0DB010D900020E9F7AD0129
:1013600041505109461B570B0E94660902C00E945A
:101370001B098D2F9C2FDF91CF910895CF93DF9381
:1013800000D0CDB7DEB7FC01118210821382128229
:1013900015821482168269831A82BE016F5F7F4FA5
:1013A0000E94A4090F900F90DF91CF910895EF92C2
:1013B000FF920F931F93CF93DF93EC017B010C817E
:1013C0001D816115710511F480E016C041155105AC
:1013D00091F0040F151FB8010E9447098823A1F35B
:1013E000288139818C819D81B701820F931F0E94D2
:1013F00090121D830C8381E0DF91CF911F910F919B
:10140000FF90EF900895FB014481558160817181C7
:101410000C94D709CF93DF93DC01ED91FC91EB01A4
:10142000A881B981309711F01097C9F4109759F03D
:10143000EB012C813D81232B31F02C9130E0319553
:101440002195310914C0309781F0DC0114968D91FB
:101450009C911597892B49F0208130E008C0BD018F
:10146000CF01DF91CF910C94871220E030E0C901C9
:10147000DF91CF910895FC0144815581FB012481C6
:1014800035814217530729F40E940A0A21E0892B6B
:1014900009F020E0822F089505C02091F100FC01A1
:1014A0002193CF016150C8F7289884E680936B029E
:1014B00008952FB7FC012083F89467706093E900CA
:1014C0000895CF93DF931F92CDB7DEB7682FCE017B
:1014D00001960E94590A8091F20099819FBF0F9056
:1014E000DF91CF910895FF920F931F93CF93DF93D6
:1014F00000D0CDB7DEB7F62E8A0190916A0299230B
:10150000A9F057FF16C012C0289880936B029091E3
:10151000F1009193FE12F8CF4115510521F0809111
:10152000F2008823D1F089818FBF1BC04FEF5FEF9E
:1015300018C0682FCE0101967A830E94590A8091C3
:10154000F20090E0A8017A81801791070CF4AC01B9
:10155000EF2DF72FF40E84E6DDCF8BE68093E800C5
:10156000E2CFCA010F900F90DF91CF911F910F91A1
:10157000FF900895CF93DF931F92CDB7DEB741E080
:1015800050E0BE016F5F7F4F0E94730A019719F40C
:10159000298130E002C02FEF3FEFC9010F90DF91AA
:1015A000CF910895CF93DF931F92CDB7DEB7682F09
:1015B000CE0101960E94590A8091E80085FF05C07E
:1015C0009091F20080E4891B01C080E099819FBF67
:1015D0000F90DF91CF9108956F927F928F929F929B
:1015E000AF92BF92CF92DF92EF92FF920F931F9331
:1015F000CF93DF931F92CDB7DEB7782EC42EB52ED2
:1016000080916A0281114CC02FEF3FEF64C0872D9B
:101610000E94D20A682E811109C0DA94A9F361E010
:1016200070E080E090E00E94030747C0282F30E080
:10163000021713070CF4602E06191109672DCE014D
:1016400001960E94590A992041F002C01092F100BF
:101650006A948FEF6812FACF17C0862D77FC02C00C
:10166000F7010EC0970106C0F9012F5F3F4FE491CB
:10167000E093F1008150C0F705C091919093F10083
:101680008150D8F7E60CF11C8091E80085FF20C05E
:101690000115110511F481101BC089818FBF0DC088
:1016A0007B01042F152F8AEFD82E90E2992E9720D8
:1016B0002AE3A22E30E4832E87200115110509F0BC
:1016C000A6CF5D9884E680936C022C2D3B2D03C041
:1016D000A092E800E2CFC9010F90DF91CF911F9156
:1016E0000F91FF90EF90DF90CF90BF90AF909F90C1
:1016F0008F907F906F9008951092E9001092690288
:101700001092680290936702809366020895FF9298
:101710000F931F93CF93DF93C42FD52FDB0160E08E
:1017200070E0EEEFFE2E38C09D012F5F3F4F87FF28
:1017300004C0FD01D901E49102C0EC91D9010091EE
:1017400068021091690220916602309167020217C7
:101750001307B4F49091E8009570E1F39091E800DC
:1017600092FD1FC0E093F100209168023091690260
:101770002F5F3F4F2F733327232B11F4F092E80094
:1017800020916802309169022F5F3F4F30936902C8
:10179000209368026F5F7F4F6C177D0729F69A01CF
:1017A00002C02FEF3FEFC901DF91CF911F910F9141
:1017B000FF9008951F93CF93DF931F92CDB7DEB7AD
:1017C000162F2091E80022FFFCCF612F79830E9421
:1017D0004C0A8BEF8093E800812F7981972F0F902F
:1017E000DF91CF911F910895CF93DF931F92CDB7D3
:1017F000DEB71982CE0101960E947110CE010196CA
:101800000E943111898190E00F90DF91CF9108956E
:101810001F920F920FB60F921124EF92FF920F9327
:101820001F932F933F934F935F936F937F938F9368
:101830009F93AF93BF93EF93FF93CF93DF93CDB776
:10184000DEB76297DEBFCDBF1092E9008091E8005D
:1018500083FFE9C068E0CE010A960E944C0A82EF3D
:101860008093E8009A8597FF05C08091E80080FF8B
:10187000FCCF03C08EEF8093E800892F807609F0BB
:10188000B7C08B85811105C01092F1001092F10054
:10189000C3C0813009F4C0C0833009F4BDC08530B5
:1018A00049F48091E80080FFFCCF8C8580688093AC
:1018B000E300B2C0863009F073C02D85E888F9884E
:1018C000223071F580E090E02A8B0E947C0B0E9410
:1018D000F40B99E08E010F5F1F4FF801392F119221
:1018E0003A95E9F799832A892A8391E09E8390E8C3
:1018F00098879AEF99872091680230916902275F53
:101900003F4F3C832B838D83C7010E947C0B49E0B2
:1019100050E0B80180E00E94870B0E94F40B7CC06D
:10192000C7012A8B0E947C0B2A89223241F482E271
:1019300090E00E943C11892B09F06EC071C02130EB
:1019400071F488899989089719F481E08093650278
:1019500080916502882389F065E371E016C0233029
:1019600009F05EC08C85882359F0823061F08130A7
:1019700009F056C069E571E008C067E471E005C090
:1019800063E971E002C061E771E06115710509F476
:1019900047C0FB01449150E080E80E94870B3CC0A7
:1019A000873009F43DC0883021F481E08093F10054
:1019B00033C0893089F5937099F5E1E3F1E081E076
:1019C00021E096E38093E9002093EB00349130937B
:1019D000EC009093ED008F5F3196853099F78EE79C
:1019E0008093EA001092EA008C8580936A0214C00A
:1019F000888999890E947C0B8E85811105C0CE0152
:101A00000A960E947C1006C0823051F4CE010A96DC
:101A10000E946411882321F08EEF8093E80003C0B8
:101A200081E28093EB0062960FB6F894DEBF0FBEA2
:101A3000CDBFDF91CF91FF91EF91BF91AF919F917A
:101A40008F917F916F915F914F913F912F911F9156
:101A50000F91FF90EF900F900FBE0F901F90189571
:101A60008093E9008091F200882319F08AE3809343
:101A7000E80008951F920F920FB60F9211242F9332
:101A80003F934F935F936F937F938F939F93AF9306
:101A9000BF93EF93FF938091E1001092E10083FFE9
:101AA0000FC01092E90091E09093EB001092EC00CF
:101AB00092E39093ED0010926A0298E09093F00008
:101AC00082FF26C083E00E94300D82E00E94610AFE
:101AD000882321F08DE692E00E944B1080916C02E9
:101AE000882339F080916C02815080936C028823A6
:101AF00061F080916B02882359F080916B028150D4
:101B000080936B02882319F003C05D9AF2CF289A64
:101B1000FF91EF91BF91AF919F918F917F916F91C5
:101B20005F914F913F912F910F900FBE0F901F909B
:101B3000189510926A0281E08093D70080EA809322
:101B4000D80082E189BD09B400FEFDCF61E070E0FC
:101B500080E090E00E94030780E98093D8008CE049
:101B60008093E2001092E000559A209A08950F9316
:101B70001F93CF93DF938230910510F482E090E0C1
:101B8000E091CE02F091CF0220E030E0C0E0D0E062
:101B900023C04081518148175907A8F048175907B9
:101BA00061F482819381209719F09B838A832EC0F0
:101BB0009093CF028093CE0229C02115310529F0E0
:101BC0004217530710F0A90102C0BE01DF010281D4
:101BD0001381EF019A01F8013097D9F621153105EB
:101BE00009F1281B390B2430310590F412968D91A0
:101BF0009C9113976115710521F0FB0193838283FA
:101C000004C09093CF028093CE02FD01329644C06F
:101C1000FD01E20FF31F81939193225031092D931F
:101C20003C933AC02091CC023091CD02232B41F459
:101C300020915101309152013093CD022093CC027A
:101C400020914F01309150012115310541F42DB7FC
:101C50003EB74091530150915401241B350BE09144
:101C6000CC02F091CD02E217F307A0F42E1B3F0B3C
:101C70002817390778F0AC014E5F5F4F24173507FE
:101C800048F04E0F5F1F5093CD024093CC028193DA
:101C9000919302C0E0E0F0E0CF01DF91CF911F917E
:101CA0000F910895EF92FF920F931F93CF93DF93BD
:101CB000009709F48FC0DC01129713961C921E92B4
:101CC0001297E090CE02F090CF02E114F10489F473
:101CD0002D913C911197280F391F8091CC02909142
:101CE000CD028217930789F5B093CD02A093CC0261
:101CF00071C0E70120E030E001C0EA01CA17DB074C
:101D000038F44A815B819E0141155105B1F722C02B
:101D1000BC0162507109FB01D383C2830081118130
:101D2000AC01400F511F4C175D0761F44881598188
:101D3000400F511F4E5F5F4F518340834A815B814B
:101D4000538342832115310529F4B093CF02A09328
:101D5000CE0240C0F901B383A283E9016991799170
:101D6000C60FD71FAC17BD0779F4DC015E914E9109
:101D7000460F571F4E5F5F4F5183408312968D91E0
:101D80009C91139793838283A0E0B0E002C0D701B7
:101D90007C01F701828193810097C9F7C701029600
:101DA00020813181820F931F2091CC023091CD028E
:101DB0002817390779F4109729F41092CF0210925E
:101DC000CE0204C013961C921E921297F092CD027E
:101DD000E092CC02DF91CF911F910F91FF90EF9095
:101DE00008958F929F92AF92BF92CF92DF92EF921F
:101DF000FF920F931F93CF93DF93EC01009779F439
:101E0000CB01DF91CF911F910F91FF90EF90DF9069
:101E1000CF90BF90AF909F908F900C94B70DDC0146
:101E2000A60FB71FFC013297AE17BF0718F4C0E02A
:101E3000D0E0ADC00081118106171707B0F0053062
:101E4000110508F4A4C0C80104978617970708F481
:101E50009EC002501109061B170B0D931D93718331
:101E60006083CD010E94520E92C07B01E01AF10AFC
:101E70005C01A00EB11EE091CE02F091CF02812C48
:101E8000912C80E090E04CC0EA15FB05F1F5408113
:101E900051816A0122E0C20ED11CCE14DF04A8F1E8
:101EA0009A012E193F097901690132E0C30ED11C54
:101EB0002EEFA22EBB24BA94AC0EBD1E25E0C21696
:101EC000D10478F04281538113965C934E9312971C
:101ED0001196FC92EE92F501718360833A2F2B2FBD
:101EE00009C00E5F1F4F040F151FD5010D931C93E2
:101EF00032812381009721F0FC013283238347C084
:101F00003093CE022093CF0242C080819181881607
:101F1000990608F44C0152814381CF01E52FF42F3B
:101F2000309709F0B1CF8091CC029091CD028A1503
:101F30009B05F1F486169706D8F480914F01909195
:101F40005001009741F48DB79EB720915301309115
:101F50005401821B930BA817B90708F068CFB09300
:101F6000CD02A093CC02FE013297718360830FC033
:101F7000CB010E94B70D7C01009709F458CFA8014E
:101F8000BE010E947E12CE010E94520EE701CE01D8
:101F9000DF91CF911F910F91FF90EF90DF90CF9045
:101FA000BF90AF909F908F9008952091BB02309189
:101FB000BC028091BD029091BE02281B390B2F7389
:101FC0003327C90108952091BB023091BC02809152
:101FD000BD029091BE022817390749F0E091BD0279
:101FE000F091BE02E558FD4F208130E002C02FEF96
:101FF0003FEFC90108952091BB023091BC0280914E
:10200000BD029091BE0228173907B1F0E091BD02E0
:10201000F091BE02E558FD4F80812091BD023091C4
:10202000BE022F5F3F4F2F7333273093BE022093A2
:10203000BD02282F30E002C02FEF3FEFC901089505
:102040000F931F93CF93DF931F92CDB7DEB78C0111
:10205000698380915C01882369F041E050E0BE0112
:102060006F5F7F4F83E00E94EC0A1816190614F484
:102070009C0107C081E090E0F8019383828320E017
:1020800030E0C9010F90DF91CF911F910F9108951A
:1020900083E00C94300DCF93DF9312C082E00E9456
:1020A000BA0A8F3F2FEF9207C9F0E091BB02F0917F
:1020B000BC02E558FD4F8083D093BC02C093BB02A5
:1020C000C091BB02D091BC022196CF73DD278091D5
:1020D000BD029091BE02C817D90701F7DF91CF91D9
:1020E0000895FC0120812E5F208342E450E067E9DF
:1020F00071E080E80C94870BFC0181819081913A1A
:1021000059F4813209F04BC047E050E065E571E0D9
:1021100080E00E94870B45C0913209F040C08032B8
:1021200039F467E070E085E591E00E94DA0B39C090
:10213000823209F034C0828180935C018091550124
:1021400090915601A0915701B0915801803B944065
:10215000A105B10531F580915C0180FD12C087E7D2
:1021600097E790930108809300082BE088E190E0C6
:102170000FB6F894A895809360000FBE209360007E
:1021800010C088E10FB6F894809360001092600050
:102190000FBEA895109201081092000802C080E0BE
:1021A000089581E008951092700210926F0288EEF7
:1021B00093E0A0E0B0E08093710290937202A0934C
:1021C0007302B09374028BE991E090936E02809356
:1021D0006D020895CF92DF92EF92FF920F931F93BB
:1021E000CF93DF936C01EB017A01E60EF71E00E05E
:1021F00010E00BC06991D601ED91FC910190F08146
:10220000E02DC6010995080F191FCE15DF0591F7BE
:10221000C801DF91CF911F910F91FF90EF90DF9058
:10222000CF900895FF920F931F93CF93DF93EC010C
:10223000F62EE881F9810480F581E02D09958C0165
:10224000E881F9810680F781E02D6F2DCE01099597
:1022500098013327C901DF91CF911F910F91FF9012
:102260000895FC0120812F5F208349E150E069E55A
:1022700072E080E80C94870B45E650E062E772E07C
:1022800080E80C94870BEF92FF920F931F93CF93EC
:10229000DF931F92CDB7DEB789838B017A0141E0CE
:1022A00050E0BE016F5F7F4F84E00E94EC0AA701FF
:1022B000B80184E40E94EC0A0F90DF91CF911F9146
:1022C0000F91FF90EF900895FC0191818081813AF8
:1022D00031F481E0913091F0933091F010C081326F
:1022E00071F49B3021F4828180935E0105C09A30A5
:1022F00031F4828180935D0181E00895089580E04A
:10230000089548E050E082E00C944311FC011682ED
:10231000178210861186128613861482BC016C5FA8
:102320007F4F0C948111E62F683810F0E85824C0D4
:10233000F0E067FF12C0E058F10921E030E001C091
:10234000220FEA95EAF72095DC0114963C91149748
:10235000322314963C93E0E00FC0E752FE4FE49125
:10236000EE2329F1E7FF08C0DC0114962C911497A5
:102370002D7F14962C93EF7720E030E0EE2351F080
:10238000DC01A20FB31F16964C9116974E1302C094
:1023900016961C922F5F3F4F2630310579F7BC010E
:1023A0006C5F7F4F0E94811121E030E002C020E08D
:1023B00030E0C9010895CF93DF93DC01E62F683840
:1023C00010F0E85824C0F0E067FF11C0E058F109B0
:1023D00081E090E001C0880FEA95EAF714969C919D
:1023E0001497982B14969C931497E0E010C0E75232
:1023F000FE4FE491E11101C040C0E7FF08C0149610
:102400008C911497826014968C931497EF7716969C
:102410008C9116978E1741F117968C9117978E17FE
:1024200019F118968C9118978E17F1F019968C91D6
:1024300019978E17C9F01A968C911A978E17A1F0DA
:102440001B968C911B978E1779F080E090E0ED0140
:10245000C80FD91F2E81211102C0EE8305C001963D
:1024600086309105A1F709C0BD016C5F7F4FCD019A
:102470000E94811121E030E008C081E090E01396D5
:102480009C938E93129720E030E0C901DF91CF91A9
:1024900008951092CB021092C2021092C1028DEAEE
:1024A00091E09093C0028093BF020895A1E21A2E9A
:1024B000AA1BBB1BFD010DC0AA1FBB1FEE1FFF1FE8
:1024C000A217B307E407F50720F0A21BB30BE40B38
:1024D000F50B661F771F881F991F1A9469F760957F
:1024E0007095809590959B01AC01BD01CF01089539
:1024F000EE0FFF1F0590F491E02D0994FB01DC0124
:1025000002C001900D9241505040D8F70895FB0150
:10251000DC018D91019080190110D9F3990B089578
:10252000FB01DC0101900D920020E1F7089512E01B
:10253000CEEDD2E004C0FE010E947A122296C03E87
:08254000D107C9F7F894FFCFA1
:10254800011E0200040003000C0B0A2A2A2A2A2A68
:102558002A382C00000000000000000000000000E5
:102568000000000000000000000000000000000063
:102578000000000000000000000000000000000053
:102588000000000000000000000000000000000043
:1025980000D002800000E1000000000000010147B7
:1025A80052310047523200475233004752340047F5
:1025B80052350047523600475237004752380041DB
:1025C8004C4C5F4F4646000D0E131516191A1C2366
:1025D8002526292A2C3234000000002010EA10D5C4
:1025E8000FFB0FE30F48104B10000000001211EA18
:0825F80010DB119311861100A4
:00000001FF
