:100000000C9463000C948B000C948B000C948B006C
:100010000C948B000C948B000C948B000C948B0034
:100020000C948B000C948B000C948B000C941F038D
:100030000C948B000C948B000C948B000C948B0014
:100040000C94A4030C948B000C948B000C948B00E8
:100050000C948B000C948B000C948B000C948B00F4
:100060000C948B000C948B00000000070002010030
:100070000003040600000000000000000102040864
:100080001020408001020408102001020408102002
:10009000040404040404040402020202020203032E
:1000A00003030303000000002300260029000000D2
:1000B0000000250028002B0000000000240027007D
:1000C0002A003001360111241FBECFEFD8E0DEBF79
:1000D000CDBF11E0A0E0B1E0E6E2F5E102C005909D
:1000E0000D92A637B107D9F711E0A6E7B1E001C03C
:1000F0001D92AE3BB107E1F710E0C4ECD0E004C0C4
:100100002297FE010E94690AC23CD107C9F70E94EA
:100110009C050C94860A0C940000CF92DF92EF921B
:10012000FF920F931F93CF93DF938C016B01E12C10
:10013000F12C1CC0C0E0D0E0BE01809102010E9401
:100140007904C701B6010E9418042196CF3FD1055A
:1001500099F7BE01809102010E947904C701B6019E
:100160000E9418042197A8F70150110901151105E3
:1001700009F7DF91CF911F910F91FF90EF90DF90E2
:10018000CF900895EF92FF920F931F93CF93DF9339
:10019000CDB7DEB7A6970FB6F894DEBF0FBECDBFC2
:1001A0008EE18EA3BE016A5D7F4FCE0101960E9453
:1001B000FD02882399F164E671E086E791E00E94F0
:1001C00037068E010F5F1F4F780112C0F801619151
:1001D0008F01CE014F960E945106BE01615E7F4F96
:1001E00086E791E00E949606CE014F960E94A905EF
:1001F00098012E193F098EA190E02817390734F392
:100200006FE571E086E791E00E949D06882331F05A
:1002100061E070E081E090E00E948D00A6960FB64C
:10022000F894DEBF0FBECDBFDF91CF911F910F912C
:10023000FF90EF90089561E0809102010E94040513
:10024000809100010E94780180ED97E00E941E02DB
:100250000E94F30261E070E081E090E00C948D0078
:1002600064E671E086E791E00C941A0686E791E077
:100270000C94A905682780E1689F900111246227EA
:1002800070E0362F2227492F50E0242B352BCB014D
:10029000F4E095958795FA95E1F728273927A3E0AB
:1002A000660F771FAA95E1F726273727C90108951A
:1002B0001F93CF93DF93EC01162F2FEF3FEF05C075
:1002C0006991C9010E943A019C011150C8F7C90106
:1002D000DF91CF911F910895982FE5E6F1E080E03E
:1002E0002191921721F08F5F8031D1F780E008953E
:1002F0008093050108951F93CF93DF93909181011F
:10030000992329F0809182018F5F8093820120914F
:10031000830180918401921759F0803510F42BE00D
:1003200001C02DE1820F809384019093830103C06B
:100330008C5E8093840120918401203A08F47AC075
:10034000809185019091860196958795909386017D
:100350008093850130918201353028F09860909328
:10036000860180938501205A209384011092820196
:1003700080918701882309F44DC0809188018F5FA7
:10038000809388018C3008F455C0C0918501D091CC
:1003900086018C2F8F730E946C01182FCE01C6E04E
:1003A00096958795CA95E1F70E946C0190E1199F97
:1003B00090011124822B90917D0191110EC08093A8
:1003C0008901982F94509B3140F0109287018091C1
:1003D0008A018F5F80938A012DC090917D01E92F62
:1003E000F0E0E557FE4F80839F5F90937D019091F1
:1003F0007D0180918901981750F0109287018091BA
:10040000A9018F5F8093A90181E080937E01109202
:10041000880110C0809185019091860188339B40AE
:1004200049F481E0809387011092880110927D0148
:1004300010927E01DF91CF911F910895BF92CF92CC
:10044000DF92EF92FF920F931F93CF93DF93CDB77D
:10045000DEB72E970FB6F894DEBF0FBECDBFBC013E
:100460008EE0E1E5F1E0DE01119601900D928A95B2
:10047000E1F76115710509F498C080E090E00E94F1
:1004800076099B01AC0160E070E080E89FE30E9488
:10049000DD0820E030E040E05EE30E94040AE62E42
:1004A000D72EC82EB92E8E010D5F1F4FFF24F39457
:1004B000F801619171918F0180E090E00E947609CE
:1004C0009B01AC0160E074E284E79BE40E94DD08DC
:1004D0009B01AC0160E070E080E89FE30E94DD08D2
:1004E0009B01AC016E2D7D2D8C2D9B2D0E94DD0876
:1004F0000E944509AB01BC014230510561057105FF
:1005000030F04F3FFFEF5F076105710550F0F39446
:1005100087E0F812CDCF423051056105710530F406
:1005200044C0E6E0FE1609F440C006C0411551057E
:10053000F1E06F077105C8F5FF20B9F11092800056
:1005400088E080938100809181008F2980938100D1
:10055000509389004093880080916F00826080935F
:100560006F0061E0809104010E94040560E08091C9
:1005700005010E94040561E0809106010E940405C6
:1005800060918001809106012E960FB6F894DEBF2F
:100590000FBECDBFDF91CF911F910F91FF90EF90D4
:1005A000DF90CF90BF900C943C052E960FB6F89438
:1005B000DEBF0FBECDBFDF91CF911F910F91FF9096
:1005C000EF90DF90CF90BF9008956091800180916F
:1005D00006010E943C0560E0809104010E943C05F8
:1005E00010927F0108958091AD01811105C081E0D5
:1005F0008093AD01109287010895FB0120917E0147
:100600002223D1F020917D0123503081231708F45B
:10061000208340812CE831E050E0B9010E946D0A4E
:1006200010927E0160917D018BE891E00E9458015B
:1006300021E0883B904F09F020E0822F08951F921F
:100640000F920FB60F9211242F933F934F935F9306
:100650006F937F938F939F93AF93BF93EF93FF938A
:100660008091AD01882329F080917F01882309F4CE
:1006700049C080917F018823B1F18091AC01982F0E
:100680009F5F9093AC01882309F443C02CC00E9463
:10069000E5028091AF019091B00101969093B00175
:1006A0008093AF0120C02091AB0181E090E0022E49
:1006B00001C0880F0A94EAF7F0E0E95FFE4F60811D
:1006C00068232F5F2093AB01809104010E943C05B9
:1006D0008091AB01863038F01092AB018091AA0175
:1006E0008F5F8093AA018091AC01883010F0109246
:1006F000AC018091AD018823B1F080917F01882306
:1007000081F011C0809105010E94730580938101E1
:10071000B0CFE091AA018091AE01E81708F0B7CF01
:10072000C2CF0E947B01FF91EF91BF91AF919F914A
:100730008F917F916F915F914F913F912F910F908A
:100740000FBE0F901F9018951F920F920FB60F9229
:1007500011242F933F938F939F93AF93BF938091D7
:10076000B1019091B201A091B301B091B401309167
:10077000B901232F2D5F2D3720F40196A11DB11D46
:1007800005C0232F2A570296A11DB11D2093B90140
:100790008093B1019093B201A093B301B093B401DF
:1007A0008091B5019091B601A091B701B091B801C7
:1007B0000196A11DB11D8093B5019093B601A09340
:1007C000B701B093B801BF91AF919F918F913F91C5
:1007D0002F910F900FBE0F901F9018950F931F939E
:1007E0009FB7F8940091B5011091B6012091B7011F
:1007F0003091B80186B5A89B06C08F3F21F00F5FEE
:100800001F4F2F4F3F4F9FBF322F212F102F0027F9
:10081000080F111D211D311D42E0000F111F221F65
:10082000331F4A95D1F7B801C9011F910F9108955F
:10083000CF92DF92EF92FF92CF93DF936B017C0117
:100840000E94EE03EB010EC00E94EE036C1B7D0BB9
:10085000683E734038F081E0C81AD108E108F10819
:10086000C851DC4FC114D104E104F10469F7DF91F0
:10087000CF91FF90EF90DF90CF900895789484B55A
:10088000826084BD84B5816084BD85B5826085BD8C
:1008900085B5816085BDEEE6F0E080818160808372
:1008A000E1E8F0E010828081826080838081816055
:1008B0008083E0E8F0E0808181608083E1EBF0E01C
:1008C000808184608083E0EBF0E0808181608083C0
:1008D000EAE7F0E0808184608083808182608083A9
:1008E0008081816080838081806880831092C100D4
:1008F00008951F93CF93DF93182FEB0161E00E94BF
:100900000405209711F460E004C0CF3FD10539F40D
:1009100061E0812FDF91CF911F910C943C05E12F75
:10092000F0E0E859FF4FE491E330B9F028F4E1300A
:1009300051F0E230B1F50CC0E63019F1E73049F181
:10094000E43079F514C084B5806884BDC7BD2EC07D
:1009500084B5806284BDC8BD29C080918000806854
:1009600080938000D0938900C09388001FC080913D
:100970008000806280938000D0938B00C0938A00B7
:1009800015C08091B00080688093B000C093B30020
:100990000DC08091B00080628093B000C093B4001D
:1009A00005C0C038D1050CF0B3CFADCFDF91CF91EA
:1009B0001F910895833069F028F48130A1F08230CE
:1009C00011F514C08630B1F08730C1F08430D9F40D
:1009D00004C0809180008F7703C0809180008F7D5C
:1009E00080938000089584B58F7702C084B58F7D91
:1009F00084BD08958091B0008F7703C08091B000CE
:100A00008F7D8093B0000895CF93DF9390E0FC0139
:100A1000E458FF4F4491FC01E057FF4F8491882335
:100A200041F190E0880F991FFC01E854FF4F259198
:100A30003491D90182559F4FFC0185919491C82F23
:100A4000D92F9FB7F8948C91611106C040958423EB
:100A50008C938881842308C0623041F4242F209530
:100A600082238C938881842B888302C0842B8C936F
:100A70009FBFDF91CF9108950F931F93CF93DF9383
:100A80001F92CDB7DEB7282F30E0F901E859FF4FAC
:100A90008491F901E458FF4F1491F901E057FF4F99
:100AA00004910023D1F0882321F069830E94DA04A5
:100AB0006981E02FF0E0EE0FFF1FE255FF4F8591B7
:100AC0009491DC019FB7F8948C91611103C010954B
:100AD000812301C0812B8C939FBF0F90DF91CF9119
:100AE0001F910F910895CF93DF93282F30E0F901E4
:100AF000E859FF4F8491F901E458FF4FD491F9016F
:100B0000E057FF4FC491CC2389F081110E94DA0491
:100B1000EC2FF0E0EE0FFF1FEC55FF4F8591949105
:100B2000DC018C918D2321E030E011F420E030E0F5
:100B3000C901DF91CF9108950E943E040E941B01DC
:100B4000C0E0D0E00E94C2002097E1F30E940000C4
:100B5000F9CFFC01808191810C945A07CF93DF93E8
:100B6000EC0188819981009711F00E945A0719823F
:100B700018821D821C821B821A82DF91CF910895F8
:100B80000F931F93CF93DF93EC018B016F5F7F4F28
:100B9000888199810E94F907009731F099838883B1
:100BA0001B830A8381E001C080E0DF91CF911F9118
:100BB0000F910895CF93DF93EC0188819981892B60
:100BC00031F08A819B818617970708F00CC0CE010F
:100BD0000E94C005882349F08C819D81892B19F4DE
:100BE000E881F981108281E001C080E0DF91CF913E
:100BF0000895EF92FF920F931F93CF93DF93EC0131
:100C00007B018A01BA010E94DA05811104C0CE017C
:100C10000E94AE0507C01D830C83B70188819981AE
:100C20000E947F0ACE01DF91CF911F910F91FF901B
:100C3000EF900895DC0111961C921E9213961C925F
:100C40001E92129715961C921E92149716961C923D
:100C50006115710559F0DB010D900020E9F7AD0138
:100C600041505109461B570B0C94F9050895CF9339
:100C7000DF93D82FC92F6115710561F0DB010D904D
:100C80000020E9F7AD0141505109461B570B0E9466
:100C9000F90502C00E94AE058D2F9C2FDF91CF91E8
:100CA0000895CF93DF9300D0CDB7DEB7FC0111825A
:100CB00010821382128215821482168269831A822C
:100CC000BE016F5F7F4F0E9437060F900F90DF913C
:100CD000CF910895EF92FF920F931F93CF93DF93DD
:100CE000EC017B010C811D816115710511F480E01F
:100CF00016C04115510591F0040F151FB8010E944F
:100D0000DA058823A1F3288139818C819D81B7017F
:100D1000820F931F0E947F0A1D830C8381E0DF9165
:100D2000CF911F910F91FF90EF900895FB014481A7
:100D30005581608171810C946A06DC0114962D91B5
:100D40003C911597232B39F481E06115710511F061
:100D5000FB0108C00895DC01ED91FC91611571055E
:100D600029F481E09081992349F007C0CF010E94C6
:100D7000760A9C0181E0232B09F080E008950F930F
:100D80001F93CF93DF938230910510F482E090E0BF
:100D9000E091BC01F091BD0120E030E0C0E0D0E086
:100DA00023C04081518148175907A8F048175907B7
:100DB00061F482819381209719F09B838A832EC0EE
:100DC0009093BD018093BC0129C02115310529F004
:100DD0004217530710F0A90102C0BE01DF010281D2
:100DE0001381EF019A01F8013097D9F621153105E9
:100DF00009F1281B390B2430310590F412968D919E
:100E00009C9113976115710521F0FB0193838283F7
:100E100004C09093BD018093BC01FD01329644C093
:100E2000FD01E20FF31F81939193225031092D931D
:100E30003C933AC02091BA013091BB01232B41F47D
:100E400020914D0130914E013093BB012093BA01A6
:100E500020914B0130914C012115310541F42DB702
:100E60003EB740914F0150915001241B350BE0914A
:100E7000BA01F091BB01E217F307A0F42E1B3F0B60
:100E80002817390778F0AC014E5F5F4F24173507FC
:100E900048F04E0F5F1F5093BB014093BA018193FE
:100EA000919302C0E0E0F0E0CF01DF91CF911F917C
:100EB0000F910895EF92FF920F931F93CF93DF93BB
:100EC000009709F48FC0DC01129713961C921E92B2
:100ED0001297E090BC01F090BD01E114F10489F497
:100EE0002D913C911197280F391F8091BA01909153
:100EF000BB018217930789F5B093BB01A093BA0198
:100F000071C0E70120E030E001C0EA01CA17DB0749
:100F100038F44A815B819E0141155105B1F722C029
:100F2000BC0162507109FB01D383C283008111812E
:100F3000AC01400F511F4C175D0761F44881598186
:100F4000400F511F4E5F5F4F518340834A815B8149
:100F5000538342832115310529F4B093BD01A09339
:100F6000BC0140C0F901B383A283E9016991799181
:100F7000C60FD71FAC17BD0779F4DC015E914E9107
:100F8000460F571F4E5F5F4F5183408312968D91DE
:100F90009C91139793838283A0E0B0E002C0D701B5
:100FA0007C01F701828193810097C9F7C7010296FE
:100FB00020813181820F931F2091BA013091BB01B2
:100FC0002817390779F4109729F41092BD0110926F
:100FD000BC0104C013961C921E921297F092BB01A2
:100FE000E092BA01DF91CF911F910F91FF90EF90A6
:100FF00008958F929F92AF92BF92CF92DF92EF921D
:10100000FF920F931F93CF93DF93EC01009779F436
:10101000CB01DF91CF911F910F91FF90EF90DF9067
:10102000CF90BF90AF909F908F900C94BF06DC0143
:10103000A60FB71FFC013297AE17BF0718F4C0E028
:10104000D0E0ADC00081118106171707B0F0053060
:10105000110508F4A4C0C80104978617970708F47F
:101060009EC002501109061B170B0D931D9371832F
:101070006083CD010E945A0792C07B01E01AF10AF9
:101080005C01A00EB11EE091BC01F091BD01812C6C
:10109000912C80E090E04CC0EA15FB05F1F5408111
:1010A00051816A0122E0C20ED11CCE14DF04A8F1E6
:1010B0009A012E193F097901690132E0C30ED11C52
:1010C0002EEFA22EBB24BA94AC0EBD1E25E0C21694
:1010D000D10478F04281538113965C934E9312971A
:1010E0001196FC92EE92F501718360833A2F2B2FBB
:1010F00009C00E5F1F4F040F151FD5010D931C93E0
:1011000032812381009721F0FC013283238347C081
:101110003093BC012093BD0142C08081918188162B
:10112000990608F44C0152814381CF01E52FF42F39
:10113000309709F0B1CF8091BA019091BB018A1527
:101140009B05F1F486169706D8F480914B01909197
:101150004C01009741F48DB79EB720914F0130911B
:101160005001821B930BA817B90708F068CFB09302
:10117000BB01A093BA01FE013297718360830FC057
:10118000CB010E94BF067C01009709F458CFA8014B
:10119000BE010E946D0ACE010E945A07E701CE01EE
:1011A000DF91CF911F910F91FF90EF90DF90CF9043
:1011B000BF90AF909F908F9008950CD0EBC0E3D07C
:1011C00040F0DAD030F021F45F3F19F0CCC051117B
:1011D00015C1CFC0F0D098F39923C9F35523B1F3CB
:1011E000951B550BBB27AA2762177307840738F096
:1011F0009F5F5F4F220F331F441FAA1FA9F333D0F5
:101200000E2E3AF0E0E830D091505040E695001CA8
:10121000CAF729D0FE2F27D0660F771F881FBB1F64
:10122000261737074807AB07B0E809F0BB0B802D3E
:10123000BF01FF2793585F4F2AF09E3F510568F08A
:1012400092C0DCC05F3FECF3983EDCF38695779567
:101250006795B795F7959F5FC9F7880F911D96958C
:10126000879597F90895E1E0660F771F881FBB1FE8
:10127000621773078407BA0720F0621B730B840B95
:10128000BA0BEE1F88F7E095089504D06894B11169
:10129000B5C0089598D088F09F5790F0B92F99273E
:1012A000B751A0F0D1F0660F771F881F991F1AF071
:1012B000BA95C9F712C0B13081F09FD0B1E008955E
:1012C0009CC0672F782F8827B85F39F0B93FCCF3DF
:1012D000869577956795B395D9F73EF49095809567
:1012E000709561957F4F8F4F9F4F0895E89409C087
:1012F00097FB3EF490958095709561957F4F8F4F49
:101300009F4F9923A9F0F92F96E9BB279395F6955E
:10131000879577956795B795F111F8CFFAF4BB0FDC
:1013200011F460FF1BC06F5F7F4F8F4F9F4F16C040
:10133000882311F096E911C0772321F09EE8872FCA
:10134000762F05C0662371F096E8862F70E060E086
:101350002AF09A95660F771F881FDAF7880F9695FF
:10136000879597F9089597F99F6780E870E060E0A6
:1013700008959FEF80EC089500240A94161617062E
:1013800018060906089500240A9412161306140676
:1013900005060895092E0394000C11F4882352F0D9
:1013A000BB0F40F4BF2B11F460FF04C06F5F7F4F91
:1013B0008F4F9F4F089557FD9058440F551F59F078
:1013C0005F3F71F04795880F97FB991F61F09F3F32
:1013D00079F087950895121613061406551FF2CF5B
:1013E0004695F1DF08C0161617061806991FF1CFAB
:1013F00086957105610508940895E894BB276627D2
:101400007727CB0197F908950BD0C4CFB5DF28F02B
:10141000BADF18F0952309F0A6CFABCF1124EECF99
:10142000CADFA0F3959FD1F3950F50E0551F629F3F
:10143000F001729FBB27F00DB11D639FAA27F00D2D
:10144000B11DAA1F649F6627B00DA11D661F829F54
:101450002227B00DA11D621F739FB00DA11D621F39
:10146000839FA00D611D221F749F3327A00D611D56
:10147000231F849F600D211D822F762F6A2F112438
:101480009F5750408AF0E1F088234AF0EE0FFF1F8B
:10149000BB1F661F771F881F91505040A9F79E3FC2
:1014A000510570F060CFAACF5F3FECF3983EDCF3BC
:1014B000869577956795B795F795E7959F5FC1F7FF
:1014C000FE2B880F911D9695879597F90895EE0F3D
:1014D000FF1F0590F491E02D0994FB01DC0102C08F
:1014E00001900D9241505040D8F70895FB01DC0166
:1014F0008D91019080190110D9F3990B0895FB018A
:10150000DC0101900D920020E1F7089510E0C4EC99
:10151000D0E004C0FE010E94690A2296C63CD107B1
:06152000C9F7F894FFCFAB
:10152600020003000C0B0A2A2A2A2A2A2A382C002F
:1015360000000000000000000000000000000000A5
:101546000000000000000000000000000000000095
:101556000000000000000000000000000000000085
:1015660000000000000000000000000000BE018036
:1015760000000001000800400000010004050D689D
:10158600656C6C6F000D0E131516191A1C23252693
:06159600292A2C3234006A
:00000001FF
