:100000000C9461000C94A4040C94D1040C947E0014
:100010000C947E000C947E000C947E000C947E0068
:100020000C947E000C947E000C947E000C940F04C3
:100030000C947E000C947E000C947E000C947E0048
:100040000C94FE040C947E000C947E000C947E00B4
:100050000C947E000C947E000C947E000C947E0028
:100060000C947E000C947E0000000007000201004A
:100070000003040600000000000000000102040864
:100080001020408001020408102001020408102002
:10009000040404040404040402020202020203032E
:1000A00003030303000000002300260029000000D2
:1000B0000000250028002B0000000000240027007D
:1000C0002A0011241FBECFEFD8E0DEBFCDBF11E064
:1000D000A0E0B1E0E0E1FDE002C005900D92A43A9D
:1000E000B107D9F712E0A4EAB1E001C01D92A53131
:1000F000B107E1F70E9457060C9486060C940000A5
:1001000081E08093CE010895CF93DF9382E00E9437
:100110002E06EC018FE00E942E0631E0CD2B09F473
:1001200030E021E0892B09F420E0809100019091DA
:100130000101321711F0019601C00197909301015E
:100140008093000180910001909101018830910518
:100150002CF0109201011092000108C097FF06C018
:1001600087E090E0909301018093000181E080930B
:10017000D301DF91CF910895CF93DF93E8E0F1E0D1
:1001800080E090E04FE551E0A081B18101961196A9
:100190009C938E9314961C92149713965C934E9393
:1001A0001297A191B19112962D913C911397280F1E
:1001B000391F13963C932E9312978830910521F79F
:1001C000C5E7D1E08881229661E00E94BF0581E009
:1001D000C538D807B9F761E089E00E94BF0562E041
:1001E00082E00E94BF0562E08FE00E94BF0562E0EE
:1001F00083E00E94BF058BE00E94720280ED97E0D1
:100200000E94180341E050E064E870E080E00E9442
:10021000840440E050E060E870E081E0DF91CF913D
:100220000C9484041F93CF93DF931F92CDB7DEB756
:10023000182F61E08DE099830E94F705E12F9981E5
:10024000F92FDF010D900020E9F7BD016150710920
:100250006E1B7F0B812F0E946F030E946A0360E078
:100260008DE00F90DF91CF911F910C94F7050E94C4
:1002700048056093CF017093D0018093D101909392
:10028000D2011092CE0181E08093CD0108950F93A9
:100290001F930E9448050091CF011091D001209139
:1002A000D1013091D201015F1F4F2F4F3F4F0617F1
:1002B00017072807390728F483E00E942E06892BA8
:1002C00019F01092CC0105C081E08093CC0110920E
:1002D000CD011F910F910895CF92DF92FF920F935E
:1002E0001F93CF93DF931F92CDB7DEB7F82E05E7AC
:1002F00011E0C12CD12C2F2D392F2031310528F4BC
:10030000F901ED57FE4F608101C06EE3F801808175
:100310000E5F1F4F70E00C2C02C0759567950A9414
:10032000E2F76170772799830E94F705FFEFCF1AF4
:10033000DF0A998128E0C216D104E9F60F90DF9117
:10034000CF911F910F91FF90DF90CF9008958091F2
:10035000D301882301F1E0910001F0910101EE0F3A
:10036000FF1FE85FFE4F0190F081E02D80819181B9
:100370000E946C01E0910001F0910101EE0FFF1F5E
:10038000E85FFE4F0190F081E02D648189E00E94DA
:10039000F7051092D3018091CE0181110E9437019F
:1003A0008091CD0181110E9447018091CC01882369
:1003B00009F46DC01092CC0180E090E0E091000162
:1003C000F0910101EE0FFF1FE85FFE4F0190F081F9
:1003D000E02D0280F381E02DE80FF91F2081E091EC
:1003E0000201F0910301E80FF91F20830196833089
:1003F000910521F7E0910001F0910101EE0FFF1F3F
:10040000E85FFE4F0190F081E02D8481811103C0EF
:1004100080E090E015C080E090E0E0910401F09170
:100420000501E80FF91F2081E0910201F09103011D
:10043000E80FF91F238301968330910571F7E8CF08
:10044000E0910601F0910701E80FF91F2081E0918A
:100450000201F0910301E80FF91F23830196833015
:10046000910571F780910201909103010E941201A0
:10047000E0910001F0910101EE0FFF1FE85FFE4FD8
:100480000190F081E02D848191E089278483089593
:10049000682780E1689F90011124622770E0362F61
:1004A0002227492F50E0242B352BCB01F4E09595E2
:1004B0008795FA95E1F728273927A3E0660F771F7C
:1004C000AA95E1F726273727C9010895982FE3E970
:1004D000F1E080E02191921721F08F5F8031D1F718
:1004E00080E008958093180108951F93CF93DF93C0
:1004F0009091D801992329F08091D9018F5F809341
:10050000D9012091DA018091DB01921759F08035F1
:1005100010F42BE001C02DE1820F8093DB0190935A
:10052000DA0103C08C5E8093DB012091DB01203A6D
:1005300008F47AC08091DC019091DD019695879551
:100540009093DD018093DC013091D901353028F0A2
:1005500098609093DD018093DC01205A2093DB01A9
:100560001092D9018091DE01882309F44DC0809159
:10057000DF018F5F8093DF018C3008F455C0C0919C
:10058000DC01D091DD018C2F8F730E946602182F41
:10059000CE01C6E096958795CA95E1F70E9466025E
:1005A00090E1199F90011124822B9091D401911117
:1005B0000EC08093E001982F94509B3140F0109230
:1005C000DE018091E1018F5F8093E1012DC0909168
:1005D000D401E92FF0E0EE51FE4F80839F5F9093AE
:1005E000D4019091D4018091E001981750F01092BD
:1005F000DE01809100028F5F8093000281E0809392
:10060000D5011092DF0110C08091DC019091DD01D5
:1006100088339B4049F481E08093DE011092DF0132
:100620001092D4011092D501DF91CF911F910895BE
:100630009C0140E050E060E874E88EE190E00E94A8
:1006400064061092800089E08093810030938900D5
:1006500020938800EFE6F0E080818260808361E093
:10066000809118010E94BF0560E0809119010E94ED
:10067000BF0561E080911A010E94BF056091D7011A
:1006800080911A010C94F705CF93109201021092F9
:10069000020210920302109204026091D701C1E09D
:1006A0006C2780911A010E94F705C093D601CF9163
:1006B00008956091D70180911A010E94F70560E0CA
:1006C000809118010E94F7051092D60181E0809375
:1006D000040208958091D6018111FCCF0895BF9244
:1006E000CF92DF92EF92FF920F931F93CF93DF93FE
:1006F000C82EF92ED62E2BE1261708F485C0C62F5A
:10070000CD5F0E946A036C2F8FEF9FEF0E9448021B
:10071000AC2FB0E044E0B595A7954A95E1F7AD560A
:10072000BE4F2C9120932301CF70EC2FF0E0ED56BB
:10073000FE4F20812093240103E211E0CC2DDF2D18
:100740001AC07E01B9906B2D0E944802AB2DB0E01B
:1007500034E0B595A7953A95E1F7AD56BE4F2C918B
:10076000F8012083D701EC91EF70F0E0ED56FE4FD9
:100770002081F80121830E5F1F4F2C2F2C192D157E
:1007800000F36D2D6F5F660F80959095E62FF0E07A
:10079000ED5DFE4FDC0114E0B695A7951A95E1F7E3
:1007A000AF70BB27AD56BE4F2C912083E62FEF5F75
:1007B000F0E0ED5DFE4FDC01AF70BB27AD56BE4FE4
:1007C0002C912083E62FEE5FF0E0ED5DFE4FDC0123
:1007D000AB2FBB27A295AF70AD56BE4F2C91208397
:1007E000A62FAD5FB0E0AD5DBE4FE92FFF27EF70E4
:1007F000FF27ED56FE4F80818C93645F6093050266
:100800000E94440381E001C080E0DF91CF911F91FD
:100810000F91FF90EF90DF90CF90BF9008951F92BF
:100820000F920FB60F9211242F933F934F935F9324
:100830006F937F938F939F93AF93BF93EF93FF93A8
:10084000809119010E942E068093D8018091D601D3
:100850008823A9F180910302982F9F5F9093030250
:100860008823D1F12CC00E945903809106029091F7
:1008700007020196909307028093060220C0209100
:10088000020281E090E0022E01C0880F0A94EAF78C
:10089000F0E0E55EFE4F608168232F5F2093020247
:1008A000809118010E94F70580910202863038F08D
:1008B00010920202809101028F5F80930102809169
:1008C0000302883010F01092030280910402882302
:1008D00051F00E94750207C0E0910102809105026B
:1008E000E81708F6CCCFFF91EF91BF91AF919F91A0
:1008F0008F917F916F915F914F913F912F910F90C9
:100900000FBE0F901F9018958230E8F4E82FF0E0AA
:10091000EE0FFF1FE85FFD4F71836083813041F070
:10092000809169008C7F842B80936900E89A0895F8
:1009300080916900440F551F440F551F837F842BFE
:1009400080936900E99A08951F920F920FB60F9253
:1009500011242F933F934F935F936F937F938F93C4
:100960009F93AF93BF93EF93FF9380910802909171
:100970000902892B29F0E0910802F09109020995FA
:10098000FF91EF91BF91AF919F918F917F916F9167
:100990005F914F913F912F910F900FBE0F901F903D
:1009A00018951F920F920FB60F9211242F933F9319
:1009B0004F935F936F937F938F939F93AF93BF9367
:1009C000EF93FF9380910A0290910B02892B29F0FB
:1009D000E0910A02F0910B020995FF91EF91BF910E
:1009E000AF919F918F917F916F915F914F913F91C7
:1009F0002F910F900FBE0F901F9018951F920F927E
:100A00000FB60F9211242F933F938F939F93AF9321
:100A1000BF9380910C0290910D02A0910E02B091B3
:100A20000F0230911402232F2D5F2D3720F40196F1
:100A3000A11DB11D05C0232F2A570296A11DB11D6E
:100A40002093140280930C0290930D02A0930E0247
:100A5000B0930F028091100290911102A0911202A6
:100A6000B09113020196A11DB11D809310029093C5
:100A70001102A0931202B0931302BF91AF919F9104
:100A80008F913F912F910F900FBE0F901F9018954F
:100A90000F931F938FB7F89400910C0210910D02E1
:100AA00020910E0230910F028FBFB801C9011F9132
:100AB0000F910895789484B5826084BD84B5816077
:100AC00084BD85B5826085BD85B5816085BDEEE656
:100AD000F0E0808181608083E1E8F0E01082808135
:100AE00082608083808181608083E0E8F0E08081A3
:100AF00081608083E1EBF0E0808184608083E0EBC3
:100B0000F0E0808181608083EAE7F0E080818460AA
:100B10008083808182608083808181608083808106
:100B2000806880831092C1000895833069F028F4B2
:100B30008130A1F0823011F514C08630B1F08730D9
:100B4000C1F08430D9F404C0809180008F7703C055
:100B5000809180008F7D80938000089584B58F7789
:100B600002C084B58F7D84BD08958091B0008F77D9
:100B700003C08091B0008F7D8093B0000895CF9323
:100B8000DF9390E0FC01E458FF4F4491FC01E057F3
:100B9000FF4F8491882341F190E0880F991FFC0159
:100BA000E854FF4F25913491D90182559F4FFC01A4
:100BB00085919491C82FD92F9FB7F8948C9161118A
:100BC00006C0409584238C938881842308C06230BA
:100BD00041F4242F209582238C938881842B888351
:100BE00002C0842B8C939FBFDF91CF9108950F9308
:100BF0001F93CF93DF931F92CDB7DEB7282F30E03E
:100C0000F901E859FF4F8491F901E458FF4F14911D
:100C1000F901E057FF4F04910023D1F0882321F020
:100C200069830E9495056981E02FF0E0EE0FFF1FB8
:100C3000E255FF4F85919491DC019FB7F8948C9118
:100C4000611103C01095812301C0812B8C939FBF3C
:100C50000F90DF91CF911F910F910895CF93DF9364
:100C6000282F30E0F901E859FF4F8491F901E45849
:100C7000FF4FD491F901E057FF4FC491CC2389F085
:100C800081110E949505EC2FF0E0EE0FFF1FEC554F
:100C9000FF4F85919491DC018C918D2321E030E010
:100CA00011F420E030E0C901DF91CF9108950E9456
:100CB0005A050E94BC00C0E0D0E00E94A701209726
:100CC000E1F30E940000F9CFA1E21A2EAA1BBB1B80
:100CD000FD010DC0AA1FBB1FEE1FFF1FA217B30708
:100CE000E407F50720F0A21BB30BE40BF50B661F1E
:100CF000771F881F991F1A9469F7609570958095E2
:100D000090959B01AC01BD01CF010895F894FFCFF0
:100D10000100620169016D01C701C201BD01B80195
:100D2000B301AE01A901A4010C0B0A2A2A2A2A2A1E
:100D30002A382C0000000000000000000000000025
:100D400000000000000000000000000000000000A3
:100D50000000000000000000000000000000000093
:100D6000000000000000000000000000000000473C
:100D70005200202020202020004F4646004F4E21C8
:100D800000414C4C000A000E00040005000600075C
:100D90000008003F065B4F666D7D077F67777C39F3
:100DA0005E79710D0E131516191A1C232526292A92
:040DB0002C323400AD
:00000001FF
