:100000000C9461000C947E000C947E000C947E0095
:100010000C947E000C947E000C947E000C947E0068
:100020000C947E000C947E000C947E000C9454037F
:100030000C947E000C947E000C947E000C947E0048
:100040000C94D9030C947E000C947E000C947E00DA
:100050000C947E000C947E000C947E000C947E0028
:100060000C947E000C947E0000000007000201004A
:100070000003040600000000000000000102040864
:100080001020408001020408102001020408102002
:10009000040404040404040402020202020203032E
:1000A00003030303000000002300260029000000D2
:1000B0000000250028002B0000000000240027007D
:1000C0002A0011241FBECFEFD8E0DEBFCDBF11E064
:1000D000A0E0B1E0E4EDFEE002C005900D92AA3A86
:1000E000B107D9F711E0AAEAB1E001C01D92A73E1D
:1000F000B107E1F70E94D1050C9468070C94000049
:10010000CF93DF93CBE8D1E08881229661E00E9413
:10011000390581E0CB39D807B9F761E08091060154
:100120000E943905809102010E94210180ED97E033
:10013000DF91CF910C94C701CF92DF92EF92FF92A3
:100140000F931F93CF93DF938C016B01E12CF12C64
:100150001CC0C0E0D0E0BE01809106010E94AE0448
:10016000C701B6010E944D042196CF3FD10599F7F2
:10017000BE01809106010E94AE04C701B6010E9433
:100180004D042197A8F7015011090115110509F730
:10019000DF91CF911F910F91FF90EF90DF90CF9063
:1001A0000895CF93DF93C4E0D1E061E088810E949D
:1001B00071058091000190910101FC01DF010D901A
:1001C0000020E9F7BD01615071096E1B7F0B0E9491
:1001D000B4020E94AF0260E088810E94710564E170
:1001E00070E081E090E0DF91CF910C949C00682753
:1001F00080E1689F90011124622770E0362F22274A
:10020000492F50E0242B352BCB01F4E095958795B1
:10021000FA95E1F728273927A3E0660F771FAA95FB
:10022000E1F726273727C9010895982FE9E9F1E07A
:1002300080E02191921721F08F5F8031D1F780E02B
:1002400008958093080108951F93CF93DF939091B1
:10025000AE01992329F08091AF018F5F8093AF01A8
:100260002091B0018091B101921759F0803510F4BE
:100270002BE001C02DE1820F8093B1019093B0017A
:1002800003C08C5E8093B1012091B101203A08F443
:100290007AC08091B2019091B30196958795909321
:1002A000B3018093B2013091AF01353028F09860EE
:1002B0009093B3018093B201205A2093B101109220
:1002C000AF018091B401882309F44DC08091B5013C
:1002D0008F5F8093B5018C3008F455C0C091B20196
:1002E000D091B3018C2F8F730E941501182FCE016E
:1002F000C6E096958795CA95E1F70E94150190E1B1
:10030000199F90011124822B9091AA0191110EC086
:100310008093B601982F94509B3140F01092B40115
:100320008091B7018F5F8093B7012DC09091AA0192
:10033000E92FF0E0E854FE4F80839F5F9093AA017D
:100340009091AA018091B601981750F01092B401D3
:100350008091D6018F5F8093D60181E08093AB01BD
:100360001092B50110C08091B2019091B301883311
:100370009B4049F481E08093B4011092B501109242
:10038000AA011092AB01DF91CF911F910895BF9206
:10039000CF92DF92EF92FF920F931F93CF93DF9351
:1003A000CDB7DEB72E970FB6F894DEBF0FBECDBF28
:1003B000BC018EE0EFE4F1E0DE01119601900D92B8
:1003C0008A95E1F76115710509F498C080E090E025
:1003D0000E9477069B01AC0160E070E080E89FE33B
:1003E0000E94DE0520E030E040E05EE30E94050769
:1003F000E62ED72EC82EB92E8E010D5F1F4FFF247B
:10040000F394F801619171918F0180E090E00E9476
:1004100077069B01AC0160E074E284E79BE40E94F4
:10042000DE059B01AC0160E070E080E89FE30E9484
:10043000DE059B01AC016E2D7D2D8C2D9B2D0E9428
:10044000DE050E944606AB01BC0142305105610544
:10045000710530F04F3FFFEF5F076105710550F008
:10046000F39487E0F812CDCF423051056105710554
:1004700030F444C0E6E0FE1609F440C006C0411561
:100480005105F1E06F077105C8F5FF20B9F1109231
:10049000800088E080938100809181008F29809383
:1004A0008100509389004093880080916F008260A2
:1004B00080936F0061E0809108010E94390560E03F
:1004C000809109010E94390561E080910A010E9432
:1004D00039056091AD0180910A012E960FB6F8940E
:1004E000DEBF0FBECDBFDF91CF911F910F91FF9067
:1004F000EF90DF90CF90BF900C9471052E960FB6C1
:10050000F894DEBF0FBECDBFDF91CF911F910F9149
:10051000FF90EF90DF90CF90BF900895CF9310920F
:10052000D7011092D8011092D9016091AD01C1E0BC
:100530006C2780910A010E947105C093AC01CF9194
:1005400008956091AD0180910A010E94710560E0FB
:10055000809108010E9471051092AC01089580916C
:10056000AC018111FCCF0895BF92CF92DF92EF9240
:10057000FF920F931F93CF93DF93C82EF92ED62EA1
:100580002BE1261708F485C0C62FCD5F0E94AF026D
:100590006C2F8FEF9FEF0E94F700AC2FB0E044E08C
:1005A000B595A7954A95E1F7A756BE4F2C91209394
:1005B0001301CF70EC2FF0E0E756FE4F208120931F
:1005C000140103E111E0CC2DDF2D1AC07E01B9909A
:1005D0006B2D0E94F700AB2DB0E034E0B595A795E8
:1005E0003A95E1F7A756BE4F2C91F8012083D70129
:1005F000EC91EF70F0E0E756FE4F2081F801218387
:100600000E5F1F4F2C2F2C192D1500F36D2D6F5FD2
:10061000660F80959095E62FF0E0ED5EFE4FDC01D1
:1006200014E0B695A7951A95E1F7AF70BB27A756CA
:10063000BE4F2C912083E62FEF5FF0E0ED5EFE4F82
:10064000DC01AF70BB27A756BE4F2C912083E62F4D
:10065000EE5FF0E0ED5EFE4FDC01AB2FBB27A29515
:10066000AF70A756BE4F2C912083A62FAD5FB0E090
:10067000AD5EBE4FE92FFF27EF70FF27E756FE4F15
:1006800080818C93645F6093DB010E948E0281E025
:1006900001C080E0DF91CF911F910F91FF90EF900B
:1006A000DF90CF90BF9008951F920F920FB60F92D8
:1006B00011242F933F934F935F936F937F938F9367
:1006C0009F93AF93BF93EF93FF938091DA018823B9
:1006D00029F08091AC01882309F449C08091AC01D4
:1006E0008823B1F18091D901982F9F5F9093D90110
:1006F000882309F443C02CC00E94A1028091DC0130
:100700009091DD0101969093DD018093DC0120C082
:100710002091D80181E090E0022E01C0880F0A9458
:10072000EAF7F0E0E55FFE4F608168232F5F2093DA
:10073000D801809108010E9471058091D80186300E
:1007400038F01092D8018091D7018F5F8093D70144
:100750008091D901883010F01092D9018091DA018E
:100760008823B1F08091AC01882381F011C0809181
:1007700009010E94A8058093AE01B0CFE091D70196
:100780008091DB01E81708F0B7CFC2CF0E942401A7
:10079000FF91EF91BF91AF919F918F917F916F9159
:1007A0005F914F913F912F910F900FBE0F901F902F
:1007B00018951F920F920FB60F9211242F933F930B
:1007C0008F939F93AF93BF938091DE019091DF0150
:1007D000A091E001B091E1013091E601232F2D5F5E
:1007E0002D3720F40196A11DB11D05C0232F2A57D6
:1007F0000296A11DB11D2093E6018093DE01909326
:10080000DF01A093E001B093E1018091E2019091BA
:10081000E301A091E401B091E5010196A11DB11D94
:100820008093E2019093E301A093E401B093E5018A
:10083000BF91AF919F918F913F912F910F900FBEDC
:100840000F901F9018950F931F939FB7F8940091E6
:10085000E2011091E3012091E4013091E50186B5B8
:10086000A89B06C08F3F21F00F5F1F4F2F4F3F4FB8
:100870009FBF322F212F102F0027080F111D211D80
:10088000311D42E0000F111F221F331F4A95D1F77F
:10089000B801C9011F910F910895CF92DF92EF9295
:1008A000FF92CF93DF936B017C010E942304EB0145
:1008B0000EC00E9423046C1B7D0B683E734038F011
:1008C00081E0C81AD108E108F108C851DC4FC11411
:1008D000D104E104F10469F7DF91CF91FF90EF902B
:1008E000DF90CF900895789484B5826084BD84B5FC
:1008F000816084BD85B5826085BD85B5816085BD1B
:10090000EEE6F0E0808181608083E1E8F0E0108233
:10091000808182608083808181608083E0E8F0E074
:10092000808181608083E1EBF0E08081846080835E
:10093000E0EBF0E0808181608083EAE7F0E0808195
:1009400084608083808182608083808181608083F5
:100950008081806880831092C10008951F93CF9397
:10096000DF93182FEB0161E00E943905209711F405
:1009700060E004C0CF3FD10539F461E0812FDF9101
:10098000CF911F910C947105E12FF0E0E859FF4FD2
:10099000E491E330B9F028F4E13051F0E230B1F500
:1009A0000CC0E63019F1E73049F1E43079F514C0B4
:1009B00084B5806884BDC7BD2EC084B5806284BD07
:1009C000C8BD29C080918000806880938000D0934A
:1009D0008900C09388001FC080918000806280934E
:1009E0008000D0938B00C0938A0015C08091B00026
:1009F00080688093B000C093B3000DC08091B000B8
:100A000080628093B000C093B40005C0C038D105A7
:100A10000CF0B3CFADCFDF91CF911F91089583300C
:100A200069F028F48130A1F0823011F514C08630CD
:100A3000B1F08730C1F08430D9F404C080918000D7
:100A40008F7703C0809180008F7D80938000089510
:100A500084B58F7702C084B58F7D84BD0895809161
:100A6000B0008F7703C08091B0008F7D8093B0007D
:100A70000895CF93DF9390E0FC01E458FF4F449139
:100A8000FC01E057FF4F8491882341F190E0880FEB
:100A9000991FFC01E854FF4F25913491D9018255EB
:100AA0009F4FFC0185919491C82FD92F9FB7F8943F
:100AB0008C91611106C0409584238C938881842396
:100AC00008C0623041F4242F209582238C938881C2
:100AD000842B888302C0842B8C939FBFDF91CF919E
:100AE00008950F931F93CF93DF931F92CDB7DEB777
:100AF000282F30E0F901E859FF4F8491F901E458BB
:100B0000FF4F1491F901E057FF4F04910023D1F0FA
:100B1000882321F069830E940F056981E02FF0E0AE
:100B2000EE0FFF1FE255FF4F85919491DC019FB7B7
:100B3000F8948C91611103C01095812301C0812B21
:100B40008C939FBF0F90DF91CF911F910F910895CC
:100B5000CF93DF93282F30E0F901E859FF4F8491BC
:100B6000F901E458FF4FD491F901E057FF4FC491C8
:100B7000CC2389F081110E940F05EC2FF0E0EE0FDD
:100B8000FF1FEC55FF4F85919491DC018C918D23D3
:100B900021E030E011F420E030E0C901DF91CF9195
:100BA00008950E9473040E948000C0E0D0E00E947B
:100BB000D1002097E1F30E940000F9CF0CD0EBC0E8
:100BC000E3D040F0DAD030F021F45F3F19F0CCC030
:100BD000511115C1CFC0F0D098F39923C9F3552313
:100BE000B1F3951B550BBB27AA2762177307840720
:100BF00038F09F5F5F4F220F331F441FAA1FA9F3D6
:100C000033D00E2E3AF0E0E830D091505040E695C7
:100C1000001CCAF729D0FE2F27D0660F771F881F28
:100C2000BB1F261737074807AB07B0E809F0BB0B17
:100C3000802DBF01FF2793585F4F2AF09E3F51053B
:100C400068F092C0DCC05F3FECF3983EDCF3869521
:100C500077956795B795F7959F5FC9F7880F911DB1
:100C60009695879597F90895E1E0660F771F881F9D
:100C7000BB1F621773078407BA0720F0621B730B50
:100C8000840BBA0BEE1F88F7E095089504D06894A2
:100C9000B111B5C0089598D088F09F5790F0B92F42
:100CA0009927B751A0F0D1F0660F771F881F991FC1
:100CB0001AF0BA95C9F712C0B13081F09FD0B1E0F7
:100CC00008959CC0672F782F8827B85F39F0B93F07
:100CD000CCF3869577956795B395D9F73EF49095C3
:100CE0008095709561957F4F8F4F9F4F0895E89441
:100CF00009C097FB3EF490958095709561957F4F64
:100D00008F4F9F4F9923A9F0F92F96E9BB27939511
:100D1000F695879577956795B795F111F8CFFAF421
:100D2000BB0F11F460FF1BC06F5F7F4F8F4F9F4F52
:100D300016C0882311F096E911C0772321F09EE8B0
:100D4000872F762F05C0662371F096E8862F70E016
:100D500060E02AF09A95660F771F881FDAF7880FF0
:100D60009695879597F9089597F99F6780E870E0C1
:100D700060E008959FEF80EC089500240A94161611
:100D8000170618060906089500240A941216130679
:100D9000140605060895092E0394000C11F4882307
:100DA00052F0BB0F40F4BF2B11F460FF04C06F5F23
:100DB0007F4F8F4F9F4F089557FD9058440F551FF9
:100DC00059F05F3F71F04795880F97FB991F61F0CD
:100DD0009F3F79F087950895121613061406551F44
:100DE000F2CF4695F1DF08C0161617061806991FB0
:100DF000F1CF86957105610508940895E894BB27A5
:100E000066277727CB0197F908950BD0C4CFB5DFBC
:100E100028F0BADF18F0952309F0A6CFABCF112444
:100E2000EECFCADFA0F3959FD1F3950F50E0551F89
:100E3000629FF001729FBB27F00DB11D639FAA272F
:100E4000F00DB11DAA1F649F6627B00DA11D661F7E
:100E5000829F2227B00DA11D621F739FB00DA11D9F
:100E6000621F839FA00D611D221F749F3327A00D59
:100E7000611D231F849F600D211D822F762F6A2FF5
:100E800011249F5750408AF0E1F088234AF0EE0F7A
:100E9000FF1FBB1F661F771F881F91505040A9F787
:100EA0009E3F510570F060CFAACF5F3FECF3983EB4
:100EB000DCF3869577956795B795F795E7959F5FEE
:100EC000C1F7FE2B880F911D9695879597F9089588
:040ED000F894FFCFC4
:100ED400850102000D0003000C0B0A2A2A2A2A2A83
:100EE4002A382C0000000000000000000000000070
:100EF40000000000000000000000000000000000EE
:100F040000000000000000000000000000000000DD
:100F140000000000000000000000000000000000CD
:100F24000001000800400000010004050D414C4C84
:100F34005F4F464600475238004752370047523603
:100F4400004752350047523400475233004752326B
:100F5400004752310068656C6C6F000100020003A9
:100F64000004000500060007000D0E131516191ADB
:0A0F74001C232526292A2C32340004
:00000001FF
