:100000000C9461000C9466040C9493040C947E0090
:100010000C947E000C947E000C947E000C947E0068
:100020000C947E000C947E000C947E000C94D10302
:100030000C947E000C947E000C947E000C947E0048
:100040000C94C0040C947E000C947E000C947E00F2
:100050000C947E000C947E000C947E000C947E0028
:100060000C947E000C947E0000000007000201004A
:100070000003040600000000000000000102040864
:100080001020408001020408102001020408102002
:10009000040404040404040402020202020203032E
:1000A00003030303000000002300260029000000D2
:1000B0000000250028002B0000000000240027007D
:1000C0002A0011241FBECFEFD8E0DEBFCDBF11E064
:1000D000A0E0B1E0E4E9FCE002C005900D92AA398D
:1000E000B107D9F712E0AAE9B1E001C01D92AA3028
:1000F000B107E1F70E9419060C9448060C94000021
:1001000081E08093C4010895CF93DF9382E00E9441
:10011000F005EC018FE00E94F00531E0CD2B09F4F1
:1001200030E021E0892B09F420E0809100019091DA
:100130000101321711F0019601C00197909301015E
:100140008093000180910001909101018830910518
:100150002CF0109201011092000108C097FF06C018
:1001600087E090E09093010180930001DF91CF91AF
:100170000895CF93DF93E6E0F1E080E090E04DE575
:1001800051E0A081B181019611969C938E931496B3
:100190001C92149713965C934E931297A191B19170
:1001A00012962D913C911397280F391F13963C936B
:1001B0002E9312978830910521F7CBE6D1E0888104
:1001C000229661E00E94810581E0CB37D807B9F71C
:1001D00061E089E00E94810562E082E00E94810581
:1001E00062E08FE00E94810562E083E00E94810569
:1001F0008BE00E94340280ED97E00E94DA0241E039
:1002000050E064E870E080E00E94460440E050E086
:1002100060E870E081E0DF91CF910C9446041F9379
:10022000CF93DF931F92CDB7DEB7182F61E08DE03B
:1002300099830E94B905E12F9981F92FDF010D9073
:100240000020E9F7BD01615071096E1B7F0B812F02
:100250000E9431030E942C0360E08DE00F90DF913B
:10026000CF911F910C94B9050E940A056093C501B6
:100270007093C6018093C7019093C8011092C40186
:1002800081E08093C30108950F931F930E940A0594
:100290000091C5011091C6012091C7013091C8019C
:1002A000015F1F4F2F4F3F4F0617170728073907CA
:1002B00028F483E00E94F005892B19F01092C20106
:1002C00005C081E08093C2011092C3011F910F917C
:1002D0000895CF92DF92FF920F931F93CF93DF93F6
:1002E0001F92CDB7DEB7F82E0BE611E0C12CD12C52
:1002F0002F2D392F2031310528F4F901E758FE4F11
:10030000608101C06EE3F80180810E5F1F4F70E0D5
:100310000C2C02C0759567950A94E2F761707727F7
:1003200099830E94B905FFEFCF1ADF0A998128E06F
:10033000C216D104E9F60F90DF91CF911F910F9172
:10034000FF90DF90CF900895E0910001F0910101BE
:10035000EE0FFF1FEA5FFE4F0190F081E02D8081DC
:1003600091810E9469018091C40181110E94340130
:100370008091C30181110E944401E0910001F0913C
:100380000101EE0FFF1FEA5FFE4F0190F081E02DAB
:10039000648189E00E94B9058091C2018823C9F176
:1003A0001092C201E0910001F0910101EE0FFF1FD8
:1003B000EA5FFE4F0190F081E02D828193810E94DF
:1003C0000F01E0910001F0910101EE0FFF1FEA5FC4
:1003D000FE4F0190F081E02D8481882329F08091E7
:1003E00002019091030104C08091040190910501E4
:1003F0000E940F01E0910001F0910101EE0FFF1F3B
:10040000EA5FFE4F0190F081E02D848191E0892721
:1004100084830895682780E1689F900111246227F2
:1004200070E0362F2227492F50E0242B352BCB01AB
:10043000F4E095958795FA95E1F728273927A3E009
:10044000660F771FAA95E1F726273727C901089578
:10045000982FE9E8F1E080E02191921721F08F5F79
:100460008031D1F780E008958093160108951F939D
:10047000CF93DF939091CD01992329F08091CE0104
:100480008F5F8093CE012091CF018091D001921790
:1004900059F0803510F42BE001C02DE1820F8093DC
:1004A000D0019093CF0103C08C5E8093D001209146
:1004B000D001203A08F47AC08091D1019091D20104
:1004C000969587959093D2018093D1013091CE017A
:1004D000353028F098609093D2018093D101205A52
:1004E0002093D0011092CE018091D301882309F48A
:1004F0004DC08091D4018F5F8093D4018C3008F47B
:1005000055C0C091D101D091D2018C2F8F730E9420
:100510002802182FCE01C6E096958795CA95E1F777
:100520000E94280290E1199F90011124822B909142
:10053000C90191110EC08093D501982F94509B3121
:1005400040F01092D3018091D6018F5F8093D60145
:100550002DC09091C901E92FF0E0E952FE4F808350
:100560009F5F9093C9019091C9018091D50198171F
:1005700050F01092D3018091F5018F5F8093F501C7
:1005800081E08093CA011092D40110C08091D10102
:100590009091D20188339B4049F481E08093D3014C
:1005A0001092D4011092C9011092CA01DF91CF912B
:1005B0001F9108959C0140E050E060E874E88EE1EE
:1005C00090E00E9426061092800089E080938100CE
:1005D0003093890020938800EFE6F0E0808182600C
:1005E000808361E0809116010E94810560E0809126
:1005F00017010E94810561E0809118010E94810528
:100600006091CC01809118010C94B905CF931092A0
:10061000F6011092F7011092F8011092F901609121
:10062000CC01C1E06C27809118010E94B905C093EC
:10063000CB01CF9108956091CC01809118010E9467
:10064000B90560E0809116010E94B9051092CB01B6
:1006500081E08093F90108958091CB018111FCCF55
:100660000895BF92CF92DF92EF92FF920F931F9364
:10067000CF93DF93C82EF92ED62E2BE1261708F440
:1006800085C0C62FCD5F0E942C036C2F8FEF9FEF8C
:100690000E940A02AC2FB0E044E0B595A7954A95B8
:1006A000E1F7A757BE4F2C9120932101CF70EC2F7B
:1006B000F0E0E757FE4F20812093220101E211E094
:1006C000CC2DDF2D1AC07E01B9906B2D0E940A023D
:1006D000AB2DB0E034E0B595A7953A95E1F7A75773
:1006E000BE4F2C91F8012083D701EC91EF70F0E020
:1006F000E757FE4F2081F80121830E5F1F4F2C2FFB
:100700002C192D1500F36D2D6F5F660F8095909558
:10071000E62FF0E0EF5DFE4FDC0114E0B695A79503
:100720001A95E1F7AF70BB27A757BE4F2C912083D6
:10073000E62FEF5FF0E0EF5DFE4FDC01AF70BB270F
:10074000A757BE4F2C912083E62FEE5FF0E0EF5DC0
:10075000FE4FDC01AB2FBB27A295AF70A757BE4F52
:100760002C912083A62FAD5FB0E0AF5DBE4FE92F87
:10077000FF27EF70FF27E757FE4F80818C93645F60
:100780006093FA010E94060381E001C080E0DF91DE
:10079000CF911F910F91FF90EF90DF90CF90BF907E
:1007A00008951F920F920FB60F9211242F933F932B
:1007B0004F935F936F937F938F939F93AF93BF9369
:1007C000EF93FF93809117010E94F0058093CD0174
:1007D0008091CB018823A9F18091F801982F9F5F28
:1007E0009093F8018823D1F12CC00E941B038091C3
:1007F000FB019091FC0101969093FC018093FB0119
:1008000020C02091F70181E090E0022E01C0880F06
:100810000A94EAF7F0E0E75EFE4F608168232F5FFD
:100820002093F701809116010E94B9058091F7018C
:10083000863038F01092F7018091F6018F5F809337
:10084000F6018091F801883010F01092F801809143
:10085000F901882351F00E94370207C0E091F601A8
:100860008091FA01E81708F6CCCFFF91EF91BF9184
:10087000AF919F918F917F916F915F914F913F9138
:100880002F910F900FBE0F901F9018958230E8F4B3
:10089000E82FF0E0EE0FFF1FE350FE4F71836083FF
:1008A000813041F0809169008C7F842B80936900B6
:1008B000E89A089580916900440F551F440F551F11
:1008C000837F842B80936900E99A08951F920F9289
:1008D0000FB60F9211242F933F934F935F936F9313
:1008E0007F938F939F93AF93BF93EF93FF938091E9
:1008F000FD019091FE01892B29F0E091FD01F0911D
:10090000FE010995FF91EF91BF91AF919F918F915A
:100910007F916F915F914F913F912F910F900FBEFB
:100920000F901F9018951F920F920FB60F921124DF
:100930002F933F934F935F936F937F938F939F93E7
:10094000AF93BF93EF93FF938091FF0190910002CB
:10095000892B29F0E091FF01F09100020995FF91A8
:10096000EF91BF91AF919F918F917F916F915F9127
:100970004F913F912F910F900FBE0F901F901895A0
:100980001F920F920FB60F9211242F933F938F93C4
:100990009F93AF93BF938091010290910202A09127
:1009A0000302B091040230910902232F2D5F2D37ED
:1009B00020F40196A11DB11D05C0232F2A570296D0
:1009C000A11DB11D209309028093010290930202A0
:1009D000A0930302B0930402809105029091060255
:1009E000A0910702B09108020196A11DB11D80934C
:1009F000050290930602A0930702B0930802BF91EC
:100A0000AF919F918F913F912F910F900FBE0F90BB
:100A10001F9018950F931F938FB7F89400910102C0
:100A20001091020220910302309104028FBFB8019D
:100A3000C9011F910F910895789484B5826084BD97
:100A400084B5816084BD85B5826085BD85B58160D2
:100A500085BDEEE6F0E0808181608083E1E8F0E032
:100A60001082808182608083808181608083E0E861
:100A7000F0E0808181608083E1EBF0E08081846040
:100A80008083E0EBF0E0808181608083EAE7F0E042
:100A900080818460808380818260808380818160A6
:100AA00080838081806880831092C10008958330A4
:100AB00069F028F48130A1F0823011F514C086303D
:100AC000B1F08730C1F08430D9F404C08091800047
:100AD0008F7703C0809180008F7D80938000089580
:100AE00084B58F7702C084B58F7D84BD08958091D1
:100AF000B0008F7703C08091B0008F7D8093B000ED
:100B00000895CF93DF9390E0FC01E458FF4F4491A8
:100B1000FC01E057FF4F8491882341F190E0880F5A
:100B2000991FFC01E854FF4F25913491D90182555A
:100B30009F4FFC0185919491C82FD92F9FB7F894AE
:100B40008C91611106C0409584238C938881842305
:100B500008C0623041F4242F209582238C93888131
:100B6000842B888302C0842B8C939FBFDF91CF910D
:100B700008950F931F93CF93DF931F92CDB7DEB7E6
:100B8000282F30E0F901E859FF4F8491F901E4582A
:100B9000FF4F1491F901E057FF4F04910023D1F06A
:100BA000882321F069830E9457056981E02FF0E0D6
:100BB000EE0FFF1FE255FF4F85919491DC019FB727
:100BC000F8948C91611103C01095812301C0812B91
:100BD0008C939FBF0F90DF91CF911F910F9108953C
:100BE000CF93DF93282F30E0F901E859FF4F84912C
:100BF000F901E458FF4FD491F901E057FF4FC49138
:100C0000CC2389F081110E945705EC2FF0E0EE0F04
:100C1000FF1FEC55FF4F85919491DC018C918D2342
:100C200021E030E011F420E030E0C901DF91CF9104
:100C300008950E941C050E94B900C0E0D0E00E9407
:100C4000A4012097E1F30E940000F9CFA1E21A2E3F
:100C5000AA1BBB1BFD010DC0AA1FBB1FEE1FFF1F60
:100C6000A217B307E407F50720F0A21BB30BE40BB0
:100C7000F50B661F771F881F991F1A9469F76095F7
:100C80007095809590959B01AC01BD01CF010895B1
:040C9000F894FFCF06
:100C9400010064016801BD01B801B301AE01A901FD
:100CA400A4019F019A010C0B0A2A2A2A2A2A2A380B
:100CB4002C00000000000000000000000000000004
:100CC4000000000000000000000000000000000020
:100CD4000000000000000000000000000000000010
:100CE4000000000000000000000000000047520067
:100CF400414C4C5F4F4646004F4E000A000E000424
:100D04000005000600070008003F065B4F666D7D86
:100D1400077F67777C395E79710D0E131516191AE2
:0A0D24001C232526292A2C32340056
:00000001FF
