:100000000C9461000C947E000C947E000C947E0095
:100010000C947E000C947E000C947E000C947E0068
:100020000C947E000C947E000C947E000C94CA0309
:100030000C947E000C947E000C947E000C947E0048
:100040000C944F040C947E000C947E000C947E0063
:100050000C947E000C947E000C947E000C947E0028
:100060000C947E000C947E0000000007000201004A
:100070000003040600000000000000000102040864
:100080001020408001020408102001020408102002
:10009000040404040404040402020202020203032E
:1000A00003030303000000002300260029000000D2
:1000B0000000250028002B0000000000240027007D
:1000C0002A0011241FBECFEFD8E0DEBFCDBF11E064
:1000D000A0E0B1E0E0ECFFE002C005900D92A83A8C
:1000E000B107D9F711E0A8EAB1E001C01D92A53E21
:1000F000B107E1F70E9447060C94DE070C9400005C
:10010000CF93DF93CAE8D1E08881229661E00E9414
:10011000AF0581E0CA39D807B9F761E083E00E94F2
:10012000AF0582E00E94970180ED97E0DF91CF91CB
:100130000C943D0261E08DE00E94E7058091020190
:1001400090910301FC01DF010D900020E9F7BD0152
:10015000615071096E1B7F0B0E942A030E942503C8
:1001600060E08DE00C94E705CF92DF92EF92FF9272
:100170000F931F93CF93DF938C016B01E12CF12C34
:100180001AC0C0E0D0E0BE0183E00E942405C70190
:10019000B6010E94C3042196CF3FD105A1F7BE014D
:1001A00083E00E942405C701B6010E94C304219781
:1001B000B0F7015011090115110519F7DF91CF9121
:1001C0001F910F91FF90EF90DF90CF9008950097CF
:1001D00071F18130910569F18230910561F18330CF
:1001E000910559F18430910551F18530910549F11E
:1001F0008630910541F18730910539F188309105BC
:1002000031F18930910529F18A30910521F18B3046
:10021000910519F18C30910511F18D30910509F19D
:100220008E30910501F10F9701F58EE0089580E47D
:10023000089589E7089584E2089580E3089589E1A7
:10024000089582E1089582E0089588E7089580E0A6
:10025000089588E1089588E0089583E0089586E48C
:10026000089581E2089586E0089581E40895EF926B
:10027000FF920F931F93CF93DF930E94E700E82E26
:10028000F12C0AE811E0C0E0D0E0F80180810E5FB7
:100290001F4FB7010C2E02C0759567950A94E2F7BF
:1002A000617077270E94E7052196C830D10569F76C
:1002B000DF91CF911F910F91FF90EF900895809162
:1002C0000001909101010E9437010E949A0065E0AF
:1002D00070E085E090E00C94B400682780E1689FAE
:1002E00090011124622770E0362F2227492F50E019
:1002F000242B352BCB01F4E095958795FA95E1F702
:1003000028273927A3E0660F771FAA95E1F726274C
:100310003727C9010895982FE8E9F1E080E021919D
:10032000921721F08F5F8031D1F780E0089580939C
:10033000040108951F93CF93DF939091AC0199230B
:1003400029F08091AD018F5F8093AD012091AE01C6
:100350008091AF01921759F0803510F42BE001C065
:100360002DE1820F8093AF019093AE0103C08C5EAC
:100370008093AF012091AF01203A08F47AC08091B8
:10038000B0019091B101969587959093B1018093BA
:10039000B0013091AD01353028F098609093B101F3
:1003A0008093B001205A2093AF011092AD0180914B
:1003B000B201882309F44DC08091B3018F5F80930F
:1003C000B3018C3008F455C0C091B001D091B10197
:1003D0008C2F8F730E948B01182FCE01C6E096954B
:1003E0008795CA95E1F70E948B0190E1199F9001D2
:1003F0001124822B9091A80191110EC08093B40119
:10040000982F94509B3140F01092B2018091B50129
:100410008F5F8093B5012DC09091A801E92FF0E086
:10042000EA54FE4F80839F5F9093A8019091A801AA
:100430008091B401981750F01092B2018091D401CC
:100440008F5F8093D40181E08093A9011092B30162
:1004500010C08091B0019091B10188339B4049F464
:1004600081E08093B2011092B3011092A801109222
:10047000A901DF91CF911F910895BF92CF92DF9292
:10048000EF92FF920F931F93CF93DF93CDB7DEB719
:100490002E970FB6F894DEBF0FBECDBFBC018EE025
:1004A000EBE4F1E0DE01119601900D928A95E1F7FF
:1004B0006115710509F498C080E090E00E94ED0696
:1004C0009B01AC0160E070E080E89FE30E9454066D
:1004D00020E030E040E05EE30E947B07E62ED72E6E
:1004E000C82EB92E8E010D5F1F4FFF24F394F80123
:1004F000619171918F0180E090E00E94ED069B0177
:10050000AC0160E074E284E79BE40E9454069B0126
:10051000AC0160E070E080E89FE30E9454069B011C
:10052000AC016E2D7D2D8C2D9B2D0E9454060E94BA
:10053000BC06AB01BC01423051056105710530F0CC
:100540004F3FFFEF5F076105710550F0F39487E0BF
:10055000F812CDCF423051056105710530F444C029
:10056000E6E0FE1609F440C006C041155105F1E071
:100570006F077105C8F5FF20B9F11092800088E07F
:1005800080938100809181008F2980938100509316
:1005900089004093880080916F00826080936F0093
:1005A00061E0809104010E94AF0560E08091050147
:1005B0000E94AF0561E0809106010E94AF05609145
:1005C000AB01809106012E960FB6F894DEBF0FBEE8
:1005D000CDBFDF91CF911F910F91FF90EF90DF90F2
:1005E000CF90BF900C94E7052E960FB6F894DEBF1F
:1005F0000FBECDBFDF91CF911F910F91FF90EF9074
:10060000DF90CF90BF900895CF931092D5011092B4
:10061000D6011092D7016091AB01C1E06C278091A7
:1006200006010E94E705C093AA01CF910895609149
:10063000AB01809106010E94E70560E08091040112
:100640000E94E7051092AA0108958091AA018111E4
:10065000FCCF0895BF92CF92DF92EF92FF920F935B
:100660001F93CF93DF93C82EF92ED62E2BE126179A
:1006700008F485C0C62FCD5F0E9425036C2F8FEF35
:100680009FEF0E946D01AC2FB0E044E0B595A795B7
:100690004A95E1F7A856BE4F2C9120930F01CF70D9
:1006A000EC2FF0E0E856FE4F2081209310010FE080
:1006B00011E0CC2DDF2D1AC07E01B9906B2D0E9468
:1006C0006D01AB2DB0E034E0B595A7953A95E1F713
:1006D000A856BE4F2C91F8012083D701EC91EF7002
:1006E000F0E0E856FE4F2081F80121830E5F1F4F96
:1006F0002C2F2C192D1500F36D2D6F5F660F809533
:100700009095E62FF0E0E15FFE4FDC0114E0B69536
:10071000A7951A95E1F7AF70BB27A856BE4F2C914D
:100720002083E62FEF5FF0E0E15FFE4FDC01AF706A
:10073000BB27A856BE4F2C912083E62FEE5FF0E03A
:10074000E15FFE4FDC01AB2FBB27A295AF70A8562F
:10075000BE4F2C912083A62FAD5FB0E0A15FBE4FAE
:10076000E92FFF27EF70FF27E856FE4F80818C931B
:10077000645F6093D9010E94040381E001C080E0BE
:10078000DF91CF911F910F91FF90EF90DF90CF906D
:10079000BF9008951F920F920FB60F9211242F93BE
:1007A0003F934F935F936F937F938F939F93AF93F9
:1007B000BF93EF93FF938091D801882329F0809114
:1007C000AA01882309F449C08091AA018823B1F1C4
:1007D0008091D701982F9F5F9093D701882309F4C8
:1007E00043C02CC00E9417038091DA019091DB0175
:1007F00001969093DB018093DA0120C02091D6010D
:1008000081E090E0022E01C0880F0A94EAF7F0E040
:10081000E95FFE4F608168232F5F2093D6018091AE
:1008200004010E94E7058091D601863038F01092CD
:10083000D6018091D5018F5F8093D5018091D7013A
:10084000883010F01092D7018091D8018823B1F040
:100850008091AA01882381F011C0809105010E9436
:100860001E068093AC01B0CFE091D5018091D901F3
:10087000E81708F0B7CFC2CF0E949A01FF91EF911D
:10088000BF91AF919F918F917F916F915F914F91A8
:100890003F912F910F900FBE0F901F9018951F92B0
:1008A0000F920FB60F9211242F933F938F939F9324
:1008B000AF93BF938091DC019091DD01A091DE01A7
:1008C000B091DF013091E401232F2D5F2D3720F40B
:1008D0000196A11DB11D05C0232F2A570296A11D07
:1008E000B11D2093E4018093DC019093DD01A0937E
:1008F000DE01B093DF018091E0019091E101A091D0
:10090000E201B091E3010196A11DB11D8093E001C8
:100910009093E101A093E201B093E301BF91AF9105
:100920009F918F913F912F910F900FBE0F901F902D
:1009300018950F931F939FB7F8940091E0011091C1
:10094000E1012091E2013091E30186B5A89B06C048
:100950008F3F21F00F5F1F4F2F4F3F4F9FBF322F11
:10096000212F102F0027080F111D211D311D42E0DE
:10097000000F111F221F331F4A95D1F7B801C9017B
:100980001F910F910895CF92DF92EF92FF92CF9334
:10099000DF936B017C010E949904EB010EC00E9461
:1009A00099046C1B7D0B683E734038F081E0C81AD7
:1009B000D108E108F108C851DC4FC114D104E104A9
:1009C000F10469F7DF91CF91FF90EF90DF90CF9026
:1009D0000895789484B5826084BD84B5816084BDB7
:1009E00085B5826085BD85B5816085BDEEE6F0E0A8
:1009F000808181608083E1E8F0E010828081826004
:100A00008083808181608083E0E8F0E08081816084
:100A10008083E1EBF0E0808184608083E0EBF0E0B4
:100A2000808181608083EAE7F0E080818460808358
:100A30008081826080838081816080838081806802
:100A400080831092C10008951F93CF93DF93182FD6
:100A5000EB0161E00E94AF05209711F460E004C053
:100A6000CF3FD10539F461E0812FDF91CF911F9104
:100A70000C94E705E12FF0E0E859FF4FE491E330F3
:100A8000B9F028F4E13051F0E230B1F50CC0E630B5
:100A900019F1E73049F1E43079F514C084B5806884
:100AA00084BDC7BD2EC084B5806284BDC8BD29C0C9
:100AB00080918000806880938000D0938900C093EB
:100AC00088001FC080918000806280938000D09356
:100AD0008B00C0938A0015C08091B000806880931D
:100AE000B000C093B3000DC08091B00080628093CD
:100AF000B000C093B40005C0C038D1050CF0B3CF2E
:100B0000ADCFDF91CF911F910895833069F028F424
:100B10008130A1F0823011F514C08630B1F08730F9
:100B2000C1F08430D9F404C0809180008F7703C075
:100B3000809180008F7D80938000089584B58F77A9
:100B400002C084B58F7D84BD08958091B0008F77F9
:100B500003C08091B0008F7D8093B0000895CF9343
:100B6000DF9390E0FC01E458FF4F4491FC01E05713
:100B7000FF4F8491882341F190E0880F991FFC0179
:100B8000E854FF4F25913491D90182559F4FFC01C4
:100B900085919491C82FD92F9FB7F8948C916111AA
:100BA00006C0409584238C938881842308C06230DA
:100BB00041F4242F209582238C938881842B888371
:100BC00002C0842B8C939FBFDF91CF9108950F9328
:100BD0001F93CF93DF931F92CDB7DEB7282F30E05E
:100BE000F901E859FF4F8491F901E458FF4F14913E
:100BF000F901E057FF4F04910023D1F0882321F041
:100C000069830E9485056981E02FF0E0EE0FFF1FE8
:100C1000E255FF4F85919491DC019FB7F8948C9138
:100C2000611103C01095812301C0812B8C939FBF5C
:100C30000F90DF91CF911F910F910895CF93DF9384
:100C4000282F30E0F901E859FF4F8491F901E45869
:100C5000FF4FD491F901E057FF4FC491CC2389F0A5
:100C600081110E948505EC2FF0E0EE0FFF1FEC557F
:100C7000FF4F85919491DC018C918D2321E030E030
:100C800011F420E030E0C901DF91CF9108950E9476
:100C9000E9040E948000C0E0D0E00E945F0120973C
:100CA000E1F30E940000F9CF0CD0EBC0E3D040F09C
:100CB000DAD030F021F45F3F19F0CCC0511115C1EA
:100CC000CFC0F0D098F39923C9F35523B1F3951B06
:100CD000550BBB27AA2762177307840738F09F5F5D
:100CE0005F4F220F331F441FAA1FA9F333D00E2ECC
:100CF0003AF0E0E830D091505040E695001CCAF739
:100D000029D0FE2F27D0660F771F881FBB1F2617FD
:100D100037074807AB07B0E809F0BB0B802DBF01D0
:100D2000FF2793585F4F2AF09E3F510568F092C00D
:100D3000DCC05F3FECF3983EDCF3869577956795D2
:100D4000B795F7959F5FC9F7880F911D9695879581
:100D500097F90895E1E0660F771F881FBB1F6217A0
:100D600073078407BA0720F0621B730B840BBA0B5E
:100D7000EE1F88F7E095089504D06894B111B5C0CE
:100D8000089598D088F09F5790F0B92F9927B751C0
:100D9000A0F0D1F0660F771F881F991F1AF0BA953F
:100DA000C9F712C0B13081F09FD0B1E008959CC066
:100DB000672F782F8827B85F39F0B93FCCF3869535
:100DC00077956795B395D9F73EF490958095709592
:100DD00061957F4F8F4F9F4F0895E89409C097FB0F
:100DE0003EF490958095709561957F4F8F4F9F4F02
:100DF0009923A9F0F92F96E9BB279395F695879546
:100E000077956795B795F111F8CFFAF4BB0F11F408
:100E100060FF1BC06F5F7F4F8F4F9F4F16C08823AF
:100E200011F096E911C0772321F09EE8872F762FE5
:100E300005C0662371F096E8862F70E060E02AF026
:100E40009A95660F771F881FDAF7880F9695879512
:100E500097F9089597F99F6780E870E060E008953A
:100E60009FEF80EC089500240A94161617061806C2
:100E70000906089500240A9412161306140605069E
:100E80000895092E0394000C11F4882352F0BB0F2F
:100E900040F4BF2B11F460FF04C06F5F7F4F8F4F92
:100EA0009F4F089557FD9058440F551F59F05F3FCD
:100EB00071F04795880F97FB991F61F09F3F79F07C
:100EC00087950895121613061406551FF2CF4695FE
:100ED000F1DF08C0161617061806991FF1CF869580
:100EE0007105610508940895E894BB276627772764
:100EF000CB0197F908950BD0C4CFB5DF28F0BADF46
:100F000018F0952309F0A6CFABCF1124EECFCADF9E
:100F1000A0F3959FD1F3950F50E0551F629FF0010C
:100F2000729FBB27F00DB11D639FAA27F00DB11D65
:100F3000AA1F649F6627B00DA11D661F829F2227EE
:100F4000B00DA11D621F739FB00DA11D621F839F75
:100F5000A00D611D221F749F3327A00D611D231F4B
:100F6000849F600D211D822F762F6A2F11249F5799
:100F700050408AF0E1F088234AF0EE0FFF1FBB1FBC
:100F8000661F771F881F91505040A9F79E3F51055B
:100F900070F060CFAACF5F3FECF3983EDCF386950C
:100FA00077956795B795F795E7959F5FC1F7FE2B06
:100FB000880F911D9695879597F90895F894FFCF1E
:100FC000010084010C0B0A2A2A2A2A2A2A382C001A
:100FD0000000000000000000000000000000000011
:100FE0000000000000000000000000000000000001
:100FF00000000000000000000000000000000000F1
:1010000000000000000000000000000000010008D7
:1010100000400000010004050D414C4C5F4F464666
:10102000004F4E00475238004752370047523600B3
:10103000475235004752340047523300475232007E
:101040004752310068656C6C6F00010002000300BC
:1010500004000500060007000D0E131516191A1CD2
:08106000232526292A2C323435
:00000001FF
