:100000000C9461000C947E000C947E000C947E0095
:100010000C947E000C947E000C947E000C947E0068
:100020000C947E000C947E000C947E000C942803AB
:100030000C947E000C947E000C947E000C947E0048
:100040000C949D030C947E000C947E000C947E0016
:100050000C947E000C947E000C947E000C947E0028
:100060000C947E000C947E0000000007000201004A
:100070000003040600000000000000000102040864
:100080001020408001020408102001020408102002
:10009000040404040404040402020202020203032E
:1000A00003030303000000002300260029000000D2
:1000B0000000250028002B0000000000240027007D
:1000C0002A0011241FBECFEFD8E0DEBFCDBF11E064
:1000D000A0E0B1E0EAECFAE002C005900D92AA3986
:1000E000B107D9F711E0AAE9B1E001C01D92A73D1F
:1000F000B107E1F70E9434050C9463050C940000ED
:10010000CF93DF93CCE7D1E08881229661E00E9413
:100110009C0481E0CC38D807B9F761E089E00E94FF
:100120009C0462E08EE00E949C0462E08FE00E94EA
:100130009C0462E08AE00E949C048BE00E948B0198
:1001400080ED97E0DF91CF910C94310261E08DE07A
:100150000E94D4048091020190910301FC01DF010F
:100160000D900020E9F7BD01615071096E1B7F0BF6
:100170000E9488020E94830260E08DE00C94D40407
:10018000009771F18130910569F18230910561F13B
:100190008330910559F18430910551F185309105F5
:1001A00049F18630910541F18730910539F1883068
:1001B000910531F18930910529F18A30910521F1BC
:1001C0008B30910519F18C30910511F18D3091052D
:1001D00009F18E30910501F10F9701F581E708953E
:1001E0008FE3089586E008958BE508958FE40895E0
:1001F00086E608958DE608958DE7089587E00895D1
:100200008FE7089587E6089587E708958CE70895B6
:1002100089E308958EE5089589E708958EE30895AA
:10022000EF92FF920F931F93CF93DF930E94C00032
:10023000E82EF12C0CE711E0C0E0D0E0F80180815D
:100240000E5F1F4FB7010C2E02C0759567950A947B
:10025000E2F7617077270E94D4042196C830D10557
:1002600069F7DF91CF911F910F91FF90EF90089563
:100270000E94A60080910001909101010E9410014E
:100280008091000180FF02C061E001C060E089E070
:100290000E94D40480910001909101010196803167
:1002A00091052CF4909301018093000104C01092F9
:1002B00001011092000160ED77E080E090E00C9485
:1002C0001104682780E1689F90011124622770E083
:1002D000362F2227492F50E0242B352BCB01F4E079
:1002E00095958795FA95E1F728273927A3E0660FBA
:1002F000771FAA95E1F726273727C9010895982F78
:10030000EAE8F1E080E02191921721F08F5F8031DF
:10031000D1F780E008958093040108951F93CF934F
:10032000DF9390919E01992329F080919F018F5F27
:1003300080939F012091A0018091A101921759F013
:10034000803510F42BE001C02DE1820F8093A101D4
:100350009093A00103C08C5E8093A1012091A10124
:10036000203A08F47AC08091A2019091A301969559
:1003700087959093A3018093A20130919F0135301E
:1003800028F098609093A3018093A201205A2093B3
:10039000A10110929F018091A401882309F44DC00E
:1003A0008091A5018F5F8093A5018C3008F455C022
:1003B000C091A201D091A3018C2F8F730E947F0165
:1003C000182FCE01C6E096958795CA95E1F70E9451
:1003D0007F0190E1199F90011124822B90919A0145
:1003E00091110EC08093A601982F94509B3140F03C
:1003F0001092A4018091A7018F5F8093A7012DC067
:1004000090919A01E92FF0E0E855FE4F80839F5FBD
:1004100090939A0190919A018091A601981750F0BB
:100420001092A4018091C6018F5F8093C60181E084
:1004300080939B011092A50110C08091A201909120
:10044000A30188339B4049F481E08093A40110927A
:10045000A50110929A0110929B01DF91CF911F91FB
:1004600008959C0140E050E060E874E88EE190E07F
:100470000E9441051092800089E0809381003093B2
:10048000890020938800EFE6F0E08081826080831D
:1004900061E0809104010E949C0460E0809105016C
:1004A0000E949C0461E0809106010E949C0460917E
:1004B0009D01809106010C94D404CF931092C70142
:1004C0001092C8011092C9011092CA0160919D0159
:1004D000C1E06C27809106010E94D404C0939C0166
:1004E000CF91089560919D01809106010E94D404EE
:1004F00060E0809104010E94D40410929C0181E08C
:100500008093CA01089580919C018111FCCF0895C8
:10051000BF92CF92DF92EF92FF920F931F93CF93F0
:10052000DF93C82EF92ED62E2BE1261708F485C0AE
:10053000C62FCD5F0E9483026C2F8FEF9FEF0E942A
:100540006101AC2FB0E044E0B595A7954A95E1F77D
:10055000A657BE4F2C9120930F01CF70EC2FF0E0E7
:10056000E657FE4F2081209310010FE011E0CC2DC3
:10057000DF2D1AC07E01B9906B2D0E946101AB2D59
:10058000B0E034E0B595A7953A95E1F7A657BE4F90
:100590002C91F8012083D701EC91EF70F0E0E65741
:1005A000FE4F2081F80121830E5F1F4F2C2F2C1945
:1005B0002D1500F36D2D6F5F660F80959095E62FDA
:1005C000F0E0E15FFE4FDC0114E0B695A7951A95C7
:1005D000E1F7AF70BB27A657BE4F2C912083E62FC3
:1005E000EF5FF0E0E15FFE4FDC01AF70BB27A65785
:1005F000BE4F2C912083E62FEE5FF0E0E15FFE4FCF
:10060000DC01AB2FBB27A295AF70A657BE4F2C9134
:100610002083A62FAD5FB0E0A15FBE4FE92FFF277B
:10062000EF70FF27E657FE4F80818C93645F6093E5
:10063000CB010E945D0281E001C080E0DF91CF919B
:100640001F910F91FF90EF90DF90CF90BF90089592
:100650001F920F920FB60F9211242F933F934F9337
:100660005F936F937F938F939F93AF93BF93EF931A
:10067000FF93809105010E940B0580939E0180915C
:100680009C018823A9F18091C901982F9F5F9093C5
:10069000C9018823D1F12CC00E9472028091CC0143
:1006A0009091CD0101969093CD018093CC0120C013
:1006B0002091C80181E090E0022E01C0880F0A94C9
:1006C000EAF7F0E0E95FFE4F608168232F5F209337
:1006D000C801809104010E94D4048091C801863031
:1006E00038F01092C8018091C7018F5F8093C701D5
:1006F0008091C901883010F01092C9018091CA011F
:10070000882351F00E948E0107C0E091C7018091BB
:10071000CB01E81708F6CCCFFF91EF91BF91AF91D5
:100720009F918F917F916F915F914F913F912F9109
:100730000F900FBE0F901F9018951F920F920FB63B
:100740000F9211242F933F938F939F93AF93BF9357
:100750008091CE019091CF01A091D001B091D101B3
:100760003091D601232F2D5F2D3720F40196A11D46
:10077000B11D05C0232F2A570296A11DB11D20933C
:10078000D6018093CE019093CF01A093D001B09376
:10079000D1018091D2019091D301A091D401B09167
:1007A000D5010196A11DB11D8093D2019093D30173
:1007B000A093D401B093D501BF91AF919F918F9138
:1007C0003F912F910F900FBE0F901F9018950F9390
:1007D0001F939FB7F8940091D2011091D3012091FB
:1007E000D4013091D50186B5A89B06C08F3F21F07A
:1007F0000F5F1F4F2F4F3F4F9FBF322F212F102FC3
:100800000027080F111D211D311D42E0000F111F8F
:10081000221F331F4A95D1F7B801C9011F910F91CB
:100820000895CF92DF92EF92FF92CF93DF936B0107
:100830007C010E94E703EB010EC00E94E7036C1BE2
:100840007D0B683E734038F081E0C81AD108E1089A
:10085000F108C851DC4FC114D104E104F10469F777
:10086000DF91CF91FF90EF90DF90CF900895789433
:1008700084B5826084BD84B5816084BD85B58260A5
:1008800085BD85B5816085BDEEE6F0E08081816043
:100890008083E1E8F0E01082808182608083808143
:1008A00081608083E0E8F0E0808181608083E1EB1B
:1008B000F0E0808184608083E0EBF0E08081816003
:1008C0008083EAE7F0E080818460808380818260B9
:1008D00080838081816080838081806880831092A2
:1008E000C1000895833069F028F48130A1F082308E
:1008F00011F514C08630B1F08730C1F08430D9F4DE
:1009000004C0809180008F7703C0809180008F7D2C
:1009100080938000089584B58F7702C084B58F7D61
:1009200084BD08958091B0008F7703C08091B0009E
:100930008F7D8093B0000895CF93DF9390E0FC010A
:10094000E458FF4F4491FC01E057FF4F8491882306
:1009500041F190E0880F991FFC01E854FF4F259169
:100960003491D90182559F4FFC0185919491C82FF4
:10097000D92F9FB7F8948C91611106C040958423BC
:100980008C938881842308C0623041F4242F209501
:1009900082238C938881842B888302C0842B8C9340
:1009A0009FBFDF91CF9108950F931F93CF93DF9354
:1009B0001F92CDB7DEB7282F30E0F901E859FF4F7D
:1009C0008491F901E458FF4F1491F901E057FF4F6A
:1009D00004910023D1F0882321F069830E947204DE
:1009E0006981E02FF0E0EE0FFF1FE255FF4F859188
:1009F0009491DC019FB7F8948C91611103C010951C
:100A0000812301C0812B8C939FBF0F90DF91CF91E9
:100A10001F910F910895CF93DF93282F30E0F901B4
:100A2000E859FF4F8491F901E458FF4FD491F9013F
:100A3000E057FF4FC491CC2389F081110E947204CA
:100A4000EC2FF0E0EE0FFF1FEC55FF4F85919491D6
:100A5000DC018C918D2321E030E011F420E030E0C6
:100A6000C901DF91CF9108950E9437040E94800050
:100A7000C0E0D0E00E9438012097E1F30E9400001E
:100A8000F9CFA1E21A2EAA1BBB1BFD010DC0AA1FA4
:100A9000BB1FEE1FFF1FA217B307E407F50720F0E7
:100AA000A21BB30BE40BF50B661F771F881F991F62
:100AB0001A9469F760957095809590959B01AC01AB
:0A0AC000BD01CF010895F894FFCFA7
:100ACA00010076010C0B0A2A2A2A2A2A2A382C0023
:100ADA00000000000000000000000000000000000C
:100AEA0000000000000000000000000000000000FC
:100AFA0000000000000000000000000000000000EC
:100B0A000000000000000000000000414C4C5F4F54
:100B1A004646004F4E004752380047523700475268
:100B2A003600475235004752340047523300475285
:100B3A0032004752310068656C6C6F000200030096
:100B4A00040005000600070008000D0E131516190B
:0A0B5A001A1C232526292A2C323408
:00000001FF
